:1000000000000420750300005D0300005F03000092
:1000100061030000630300006503000000000000AE
:100020000000000000000000000000006703000066
:1000300069030000000000006B0300006D03000076
:10004000657100006DC10200A57E00006F03000015
:100050006F0300006F030000BD7B00006F03000012
:100060006F0300006F0300006F0300006F030000C8
:100070006F030000998200006F0300006F0300000F
:100080006F030000094600006F0300006F030000CB
:100090006F0300006F0300006F0300006F03000098
:1000A0006F0300006F030000258B00006F0300004A
:1000B0006F0300006F03000000000000000000005C
:1000C0006F0300006F0300006F0300006F03000068
:1000D00001EA02006F0300006F0300006F030000DD
:1000E0006F0300006F0300006F03000000000000BA
:1000F000000000006F030000000000006F0300001C
:1001000000000000000000000000000000000000EF
:1001100000000000000000000000000000000000DF
:1001200000000000000000000000000000000000CF
:1001300000000000000000000000000000000000BF
:1001400000000000000000000000000000000000AF
:10015000000000000000000000000000000000009F
:10016000000000000000000000000000000000008F
:10017000000000000000000000000000000000007F
:10018000000000000000000000000000000000006F
:10019000000000000000000000000000000000005F
:1001A000000000000000000000000000000000004F
:1001B000000000000000000000000000000000003F
:1001C000000000000000000000000000000000002F
:1001D000000000000000000000000000000000001F
:1001E000000000000000000000000000000000000F
:1001F00000000000000000000000000000000000FF
:10020000354936480A1A02D0072291438D463449AF
:1002100034480A1A06D00722914381F30988022242
:1002200082F3148830483149314A00F044F83148AB
:100230003149324A00F03FF831483249324A00F041
:100240003AF832483249334A00F035F832483349F7
:10025000334A00F030F833483349344A00F02BF881
:1002600033483449344A00F026F8344834490022EF
:1002700000F02CF833483449002200F027F83348C6
:100280003349091A082902DB002202604160314A21
:1002900090471F481F49884205D00268043003B4C4
:1002A000904703BCF7E700208646EC46002000217B
:1002B000294A9047FEE7884207D0521A05D00378B2
:1002C00001300B700131013AF9D17047884202D0F8
:1002D00002700130FAE770470000042000E00320BC
:1002E0000000042000000420BC250300D4000020EE
:1002F0004C040020D0030000D0030000A6EF020051
:10030000BC250300D4000020D40000207CF10200B2
:100310007CF102007CF102007CF102007CF1020021
:100320007CF102007CF102007CF10200BB2503009D
:10033000342903004C0400204C0400204C0400200D
:100340007E4A0020804A0020804A0020804A002007
:10035000806A00209D030000C5AF0000FEE7FEE7B5
:10036000FEE7FEE7FEE7FEE7FEE7FEE7FEE7FEE765
:1003700000F002B8FFF7FCBF0F484FF007018843B9
:1003800085460E4880470E48016841F470010160BF
:10039000BFF34F8FBFF36F8FFFF732BF09480A4992
:1003A0000A4A884207D0521A05D0037801300B70F0
:1003B0000131013AF9D17047000004203DB100003D
:1003C00088ED00E0A8F0020000000020D40000202A
:1003D000FEE700B5A1B00590049103920293049842
:1003E00005F084FB039B1593029B16930023179340
:1003F00000238DF8603000231993229B1A93002369
:100400001F930FA91F9B0822049805F049FC08239D
:100410001F93119B1293BDF84030ADF84C30BDF8DE
:100420004230ADF84E3000238DF851309DF83C300D
:1004300003F00303DBB2012B26D10F9BC3F39523FB
:100440001C939DF83C30C3F3C203DBB28DF85030EF
:10045000BDF83C30C3F38313DBB21B931B9B9A00A4
:1004600009A91F9B049805F01BFC1B9B9B001F9A6E
:1004700013441F9312AA09A915AB009313461B9AA4
:100480001C9801F0DBF92FE09DF83C3003F00303EA
:10049000DBB2022B28D1BDF83E30C3F389139BB2E7
:1004A0001E939DF83C30C3F3C203DBB28DF850308D
:1004B0001E9B082B28BF08231D9307A91F9B1D9A6D
:1004C000049805F0EDFB1F9A1D9B13441F931E9A81
:1004D0001D9BD31A1E9315AB12AA07A81D9901F0F4
:1004E0004FFA1E9B002BE3D1049805F00EFB00BFD2
:1004F00021B05DF804FB000000B583B00190019BC2
:100500001B781A460C4B9B5C002B05D0019B0433D7
:10051000184609F0FDFC0BE0019B1B781A46064BC0
:100520009B5C002B04D1019B0C33184608F0B2FEF3
:1005300000BF03B05DF804FBD80C002000B587B005
:100540000390029113468DF8073000230593039B17
:100550001B781A46114B9B5C002B09D0039B04337C
:100560009DF807200299184609F028FD05900FE034
:10057000039B1B781A46094B9B5C002B08D1039BFD
:100580000C339DF807200299184608F0FBFE0590F1
:10059000059B184607B05DF804FB00BFD80C00208F
:1005A00082B001900091034B01221A7000BF02B08B
:1005B000704700BF8C04002030B58DB003468DF825
:1005C00007301A4B02AC1D460FCD0FC495E80F0043
:1005D00084E80F00062302934FF0FF3303934FF09C
:1005E000FF3304934FF0FF3305934FF0805308938C
:1005F0009DF80730002B01D00D4A00E0002202AB2D
:1006000019460C4806F0B0FA0B900B9B0A930A9B14
:10061000002B04D0084A43210A9803F031F8074A16
:100620009DF80730137000BF0DB030BDE0F102003F
:10063000A1050000D40000207CF102008D04002000
:1006400000B583B001238DF807309DF807301846B8
:10065000FFF7B2FF00BF03B05DF804FB00B589B03F
:10066000039002910192019B8DF81F30124B0022E2
:100670001A709DF81F301A4602991048FFF75EFF66
:100680000690069B0593059B002B04D00C4A532132
:10069000059802F0F5FF00BF0A4B1B78002B07D02E
:1006A000054B1B78DBB283F00103DBB2002BF3D1E7
:1006B00000BF09B05DF804FB8C040020D4000020CA
:1006C0007CF102008D04002000B585B003900291FA
:1006D000054B00934023054A02990398FFF779FEE2
:1006E00000BF05B05DF804FB5D0600004C0400206F
:1006F00082B0019000BF02B07047000000B583B027
:1007000001900548FFF7F8FE0020FFF755FF00BFF6
:1007100003B05DF804FB00BFD400002082B001905C
:10072000019BDB6801225A7100BF02B070470000D4
:1007300000B583B04FF0FF330193FFF781FF042131
:10074000084800F08FFF0190019B002B03DA064957
:10075000482003F067FF0348FFF7E0FF00BF03B046
:100760005DF804FB80F0020020F2020000B583B0C7
:1007700001900091019B1B681B68009901989847A4
:1007800000BF03B05DF804FB00B583B00190019B8E
:100790001B689B680198984700BF03B05DF804FB95
:1007A00082B001900B468DF80330019BDB689DF809
:1007B00003201A7100BF02B0704782B00190019B04
:1007C000DB681B79184602B0704782B00190019B2C
:1007D000DB685B79184602B07047000000B58DB049
:1007E000019000913F4BFF229A603E4B00221A601D
:1007F0003C4B00225A603B4B0022C3F81824394B73
:100800000022C3F81424374B002283F820243648F2
:1008100005F0D0F80890089B002B01D0089B5CE005
:10082000324805F0F1FC324A324BD31ADB08079309
:1008300000230B9332E00023099300230A931DE069
:100840000B9A0A9B9A4216D00B9BDB00294A134451
:100850001B6803930A9BDB00264A13441B68029320
:100860001422029903980BF0B7FF0346002B02DD18
:10087000099B013309930A9B01330A930A9A079B48
:100880009A42DDD30B9B9B001B4A13440493099BA4
:100890009AB2049B1A800B9B01330B930B9A079B14
:1008A0009A42C8D300230B9312E00B9B9B00124A81
:1008B000134406930B9B9B00104A13440593069B1D
:1008C00000225A80059B00221A600B9B01330B9378
:1008D0000B9A079B9A42E8D3002318460DB05DF8A7
:1008E00004FB00BFF805002090F0020014F30200A2
:1008F00080F00200C0EF0200000000206000002035
:10090000024A034BD31ADB081846704780F00200F6
:10091000C0EF020000B587B001900B468DF80330A0
:100920009DF80330002B1FD0FFF7EAFF049000234F
:10093000059313E0059B9B000E4A13440393039B0E
:100940001B881A46019B1B689A4204D1019B059A99
:100950001A60002309E0059B01330593059A049B67
:100960009A42E7D3052300E00023184607B05DF85C
:1009700004FB00BF0000002000B585B001900B46CD
:100980008DF803309DF8032001AB11461846FFF7A0
:10099000C1FF0346002B07D1019BDB00054A13442E
:1009A0000393039B1B6800E00023184605B05DF825
:1009B00004FB00BFC0EF020084B001900B468DF82D
:1009C0000330019BDB00174A134402939DF8033068
:1009D000013B032B1CD801A252F823F0ED090000C3
:1009E000F5090000FD090000070A000002238DF848
:1009F0000F3011E004238DF80F300DE0029B1B79BE
:100A00008DF80F3008E0029B5B798DF80F3003E022
:100A100000238DF80F3000BF9DF80F30184604B04A
:100A2000704700BFC0EF020086B001900023ADF810
:100A300016300023049316E00722049B9A40019B82
:100A40001A40049B22FA03F3ADF80E30BDF80E20D5
:100A5000BDF816309A4203D9BDF80E30ADF8163005
:100A6000049B03330493049B092BE5D9BDF816308E
:100A7000184606B07047000000B587B00390029199
:100A800013468DF80730029B9B001C4A13440593C4
:100A9000029B9B001A4A13440493049B1968039A0F
:100AA00013465B001344072202FA03F3DB4301EA17
:100AB0000302049B1A60049B19689DF80700039ABF
:100AC00013465B0013449840039A13465B0013449B
:100AD000072202FA03F3034041EA0302049B1A606F
:100AE000049B1B681846FFF79FFF03461A46059BA9
:100AF0005A8000BF07B05DF804FB00BF0000002073
:100B00006000002084B00190019BDB00034A134485
:100B10000393039BDB79184604B07047C0EF0200D3
:100B200084B00190009100238DF80F30019B1B7859
:100B300003F00403DBB2002B24D0019B1B78C3F32A
:100B40000103DBB2012B02D0022B0CD017E0009B7B
:100B50001B68019A1288C2F38312D2B213449A1C02
:100B6000009B1A600BE0009B1B68019A5288C2F33D
:100B7000891292B213449A1C009B1A6000BF012391
:100B80008DF80F309DF80F30184604B07047000004
:100B900000B58BB00023ADF826303E4803F00EFFC1
:100BA0003D4803F00BFF3D4B5B6804933B4B9B6858
:100BB0000693049A069B134002339B00374A134462
:100BC0000433089304AB19460898FFF7A9FF0346BE
:100BD000002B09D0049A069B134002339B002F4A36
:100BE000134404330893EDE700BF0023079311E09B
:100BF000049B5A1C0492069A1340079A920001A97A
:100C00000A44264902339B000B445B681360079B30
:100C100001330793079B012BEAD99DF80430C3F3F6
:100C20000103DBB2012B10D0022B1CD1BDF80A301E
:100C3000ADF82630BDF80630C3F389139BB20333F9
:100C40009A08049B1344049313E0BDF80A30ADF8EE
:100C50002630BDF80430C3F38313DBB21A46049B7D
:100C60001344049305E00E494FF4BF7003F0DAFC1F
:100C700000BF094803F0AEFE0590059B002B02D093
:100C8000049B064A5360BDF8263018460BB05DF849
:100C900004FB00BF100A00200C0A0020F805002009
:100CA000A0F2020000B585B00021074803F0D3FD93
:100CB0000390039B0293029B83F310030193019B18
:100CC000184605B05DF804FB140A002000B589B091
:100CD0000390029101920093039B1B0C0793FFF773
:100CE000E1FF0690FFF70CFE0246079B934204D3F8
:100CF000214940F2A31003F095FC069B1904009BC8
:100D00005A1C0A9B1340079A0A431C4902339B0052
:100D10000B445A60009A0A9B134002339B00174A07
:100D2000134404330593039B03F00703D9B2059AD8
:100D3000137861F3C5031370019B03F00F03D9B25D
:100D4000059A138861F389131380029BC3F315017D
:100D5000059A136861F39F231360059A13780121A4
:100D600061F301031370059A13786FF38203137014
:100D700000BF09B05DF804FBA0F20200F8050020F6
:100D800000B58BB00390029113468DF80730039B9A
:100D90000233089301238DF81F30002003F028F858
:100DA0003E4B1A68029B1A603C4B9A683B4B596851
:100DB0003A4B1B68CB1A13440133099314E0012109
:100DC000374803F0BFFDFFF7E3FE0590059934486F
:100DD00003F0B8FD314B9A68304B59682F4B1B68B4
:100DE000CB1A134401330993089A099B9A42E6D817
:100DF0009DF81F30002B48D0002304939DF8073046
:100E0000002B17D09DF81030012262F301038DF8FA
:100E100010309DF8103043F004038DF81030039B20
:100E200003F00F03DAB2BDF8103062F38913ADF8A6
:100E3000103016E09DF81030022262F301038DF8A5
:100E400010309DF8103043F004038DF81030039BF0
:100E5000C3F309039AB2BDF8123062F38F13ADF8F1
:100E600012300E4B1A680D4B9B68134002339B00E7
:100E70000A4A134404330693049A069B1A60074BEC
:100E80001A68089B1344054A1360002002F0C4FF4F
:100E90009DF81F3018460BB05DF804FBF8050020E4
:100EA000140A002000B587B00190244B93F8203439
:100EB000002B02D1019B002B01D1019B39E001984D
:100EC0000BF036FD03460133049304AA03A9012362
:100ED0001B4805F0B7F90346002B29D1039B049A60
:100EE000019918460BF0A6FC039A049B013B13449E
:100EF00000221A70049B1946114805F023FA059048
:100F0000059B002B04D00F4940F20A2003F08AFB16
:100F1000049B19460A4805F048FA0590059B002BEA
:100F200004D0084940F20E2003F07CFB039B00E054
:100F30000023184607B05DF804FB00BFF805002049
:100F400014F30200A0F2020000B58BB005900491EA
:100F5000039202931F4B9B68079306AB012219462D
:100F60000298FFF70DFF0346002B24D0069B0233A7
:100F700009930023089311E0089B9B00039A1A44ED
:100F8000099B591C099107990B40126811490233BA
:100F90009B000B445A60089B01330893089A029BFC
:100FA0009A42E9D3069A079B00931346029A049942
:100FB0000598FFF78BFE074B93F82034002B05D0E4
:100FC00000BF00F01BF90346002BFAD100BF0BB0A5
:100FD0005DF804FBF805002000B583B00190009196
:100FE0000023002200990198FFF7AEFF00BF03B075
:100FF0005DF804FB00B587B0039002910192019B5C
:10100000059305AA012302990398FFF79DFF00BFEE
:1010100007B05DF804FB00B587B003900291019220
:101020000093019B0493009B059304AA0223029959
:101030000398FFF789FF00BF07B05DF804FB00B518
:1010400089B00390029101920093019B0593009B4C
:1010500006930A9B079305AA032302990398FFF7B7
:1010600073FF00BF09B05DF804FB00B589B00390C1
:10107000029101920093019B0493009B05930A9BAC
:1010800006930B9B079304AA042302990398FFF786
:101090005BFF00BF09B05DF804FB000000B58DB038
:1010A000039002911346ADF806304B4B9B680B93AF
:1010B000BDF8063003339B0805A900221846FFF748
:1010C0005FFE0346002B78D0059B0A93059B0233F5
:1010D0000593414B9A6805990B9B0B40D31A01333A
:1010E0009B000993BDF80630099A9A420ED3059ADF
:1010F0000B9B134002339B00374A13440433BDF863
:101100000620029918460BF095FB17E0059A0B9BF9
:10111000134002339B00304A13440433099A029966
:1011200018460BF087FB029A099BD118BDF80620E0
:10113000099BD31A1A4629480BF07CFB039B1B0C16
:101140000893FFF7AFFD0790079B19040A9B5A1CF1
:101150000B9B1340089A0A431F4902339B000B4420
:101160005A600A9A0B9B134002339B001A4A13449D
:1011700004330693039B03F00703D9B2069A13784E
:1011800061F3C5031370069A13886FF38F131380EE
:10119000BDF80630C3F3090399B2069A538861F388
:1011A0008F135380069A1378022161F301031370A1
:1011B000069A13786FF382031370074B93F8203469
:1011C000002B05D000BF00F019F80346002BFAD120
:1011D00000BF0DB05DF804FBF805002004060020F8
:1011E000054B5A68044B1B689A420CBF012300232D
:1011F000DBB21846704700BFF805002000B59BB071
:10120000FFF7EEFF0346002B01D00023E5E19B4BE7
:101210000022C3F81824BFF34F8F00BF974B5B68C1
:101220000493964B9B681193049A119B13400233CD
:101230009B00924A1344043319930023189300230C
:1012400017930023169304AB19461998FFF768FC0F
:101250000346002B19D0894BD3F81834002B14D136
:10126000864B1A68049B9A4205D8844B1B68834AB4
:1012700053600023B1E1049A119B134002339B0099
:101280007E4A134404331993DDE70023159311E0DC
:10129000049B5A1C0492119A1340159A920001A9BA
:1012A0000A44764902339B000B445B681360159B2C
:1012B00001331593159B012BEAD99DF8043003F0F7
:1012C0000303DBB2022B40F09C80BDF80630C3F371
:1012D00089139BB20F93BDF80630C3F389139BB2F9
:1012E000502B28BF50239BB20E930E9BC3F30903D0
:1012F0009AB2BDF8063062F38F13ADF806300E9B3C
:1013000008330D939DF80430C3F3C203DBB2169388
:101310000D995B4804F059FB1890189B002B00F0C6
:10132000D180189804F0E2FB01A9179B08221898B5
:1013300004F098FC179B08331793049BDA43119B26
:10134000134001339B000C930E9A0C9B9A4242D996
:101350000C9B002B08D0049A119B134002339B0076
:10136000464A1344043300E0464B0A930C9B002B7F
:1013700002D00C9BDBB201E00E9BDBB28DF8273074
:101380000C9B002B01D03F4B00E0002308930C9BEB
:10139000002B06D00E9BDAB20C9BDBB2D31ADBB269
:1013A00000E000238DF81F309DF82720179B0A9935
:1013B000189804F057FC9DF82730179A1344179398
:1013C000089B002B16D09DF81F20179B0899189892
:1013D00004F048FC0EE0049A119B134002339B007A
:1013E000264A134404330B93179B0E9A0B991898B3
:1013F00004F038FC0F9B03339A08049B13440493B6
:1014000060E09DF8043003F00303DBB2012B59D1F7
:10141000BDF80430C3F38313DBB2062B28BF0623C9
:10142000DAB2BDF8043062F38913ADF80430BDF8C8
:101430000430C3F38313DBB2023310939DF80430FE
:10144000C3F3C203DBB21693109B9B0019460C48F2
:1014500004F0BBFA1890189B002B33D0189804F0B6
:1014600045FB01A9179B0822189804F0FBFB179B6A
:1014700008331793002315931BE000BFF8050020E5
:1014800090F0020004060020049B5A1C0492119A5A
:10149000134002339B00534A1344191D179B042227
:1014A000189804F0DFFB179B04331793159B013347
:1014B0001593BDF80430C3F38313DBB21A46159BB2
:1014C0009342E1D3189B002B63D0464BD3F81034E2
:1014D0001493444BD3F81834002B45D0189804F0DB
:1014E00014FB74E000238DF84F301498FFF76DF96A
:1014F0000346002B2CD01498FFF75FF903468DF8B4
:101500001E30BDF808309B00374A13440693069BF3
:1015100019689DF81E2013465B001344072202FA47
:1015200003F319409DF81E2013465B00134421FA73
:1015300003F30593169B052B01D0169B00E00323B4
:101540001693059A169B9A4202D301238DF84F30C9
:101550009DF84F30002B03D018991498FFF706F927
:10156000149BDB681B681493149B002BBAD118984A
:1015700004F0CBFA002002F03BFC1A4BD3F81834ED
:10158000002B02D1049B174A5360002002F044FC58
:101590001DE0144BD3F81034129306E01298FFF7B5
:1015A000F3F8129BDB681B681293129B002BF5D19A
:1015B0000E4B5B88012B0AD90D4A0E4BD31ADB0860
:1015C0001B0443F002030C491846FFF705FDFFF723
:1015D00007FE034683F00103DBB218461BB05DF83B
:1015E00004FB00BFF8050020600000201C00002064
:1015F000F8EF0200C0EF020000F3020000B585B072
:101600000023039323E0164BD3F8103402930123F5
:101610008DF807300FE00298FFF7CFF803461A461F
:10162000039B934203D100238DF8073006E0029B11
:10163000DB681B680293029B002BECD19DF80730FE
:10164000002B01D0039B07E0039B01330393039B13
:10165000092BD8DD4FF0FF33184605B05DF804FBC9
:10166000F805002000B587B001900B468DF80330D7
:10167000FFF7C4FF0490049BB3F1FF3F01D1049B2B
:1016800048E0049BDBB219460198FFF789F8234B29
:10169000D3F81034002B08D1204A019BC2F8103433
:1016A000019BDB6800221A600DE01C4BD3F810345C
:1016B000DA68019BDB6812681A60184BD3F81034A3
:1016C000DB68019A1A60002305931CE00598FFF778
:1016D00019FA03468DF80F309DF803209DF80F305E
:1016E000934228BF13468DF80E300198FFF765F836
:1016F000034618469DF80E301A460599FFF7BCF9C7
:10170000059B01330593FFF7FBF80246059B9342C7
:10171000DCD3049B184607B05DF804FBF8050020F5
:1017200082B00190009100BF02B0704710B584B044
:1017300003900291039BDB88002B0AD0039BDB887C
:101740001A461F4B009313461E4A1F49029803F086
:101750007BFA039B1B7A052B2ED0039B5B7A002B15
:1017600012D0039B9B881A46039B1B7A194610468E
:10177000FFF722F903461A46144B53F822301A4653
:101780001349029803F060FA039B1B6819460298FC
:10179000FFF7C6FF039B1B7A1A460E4B53F82240F5
:1017A000039B9B8800211846FFF7E6F80346224674
:1017B0000949029803F048FA00BF04B010BD00BF09
:1017C00040F3020050F3020088F3020004010020FD
:1017D000A0F30200F0000020A4F3020000B585B0E1
:1017E0000390029113468DF80730039B1B7A052B5B
:1017F0000FD0039B5B7A002B06D00D4B1B681A465B
:101800000C49029803F020FA0B49029803F01CFAE5
:1018100007E09DF80730002B03D00749029803F03A
:1018200013FA029803F0EEF900BF05B05DF804FB6F
:1018300004010020A0F30200B0F3020030B58BB029
:1018400007900691059204930E9B1B7B8DF8273021
:101850000E9B00221A730E990498FFF767FF059BF1
:10186000062B7FD801A252F823F000BF8918000090
:1018700093180000A3180000B7180000D518000046
:10188000FD1800002D19000007990E9803F0DCF9EF
:1018900069E0069B1B681A4607990E9803F0D4F975
:1018A00061E0069B1A68069B04331B6807990E9833
:1018B00003F0CAF957E0069B1A68069B04331968BF
:1018C000069B08331B6800930B4607990E9803F09C
:1018D000BBF948E0069B1968069B04331868069B11
:1018E00008331B68069A0C32126801920093034673
:1018F0000A4607990E9803F0A7F934E0069B18688A
:10190000069B04331C68069B08331B68069A0C323E
:1019100012680699103109680291019200932346DA
:10192000024607990E9803F08FF91CE0069B1C688D
:10193000069B04331D68069B08331B68069A0C320D
:1019400012680699103109680698143000680390EF
:101950000291019200932B46224607990E9803F0BC
:1019600073F900E000BF00220E990498FFF736FFDC
:101970000E9B9DF827201A7300BF0BB030BD00BF2F
:1019800000B587B00390029101920093029B082B4F
:1019900060D8009B1B7B8DF81330009B00221A73CC
:1019A00000990198FFF7C2FE0023059314E0059A01
:1019B000029B9A4209D2039A059B13441B781A464C
:1019C0002649009803F040F903E02549009803F008
:1019D0003BF9059B01330593059B072BE7D921496B
:1019E000009803F031F90023059326E0059A029B45
:1019F0009A421BD2039A059B13441B788DF8123030
:101A00009DF812307E2B0AD89DF8123018460AF045
:101A100063FE0346002B02D09DF8123000E02E2317
:101A20001A461149009803F00FF903E00F49009896
:101A300003F00AF9059B01330593059B072BD5D9C4
:101A4000012200990198FFF7C9FE009B9DF8132021
:101A50001A7300E000BF07B05DF804FBB4F30200A6
:101A6000BCF30200C0F30200C4F30200C8F302009A
:101A700000B583B00190019B1B682F2B04D90B4943
:101A800040F2CD1002F0CEFD019B1B681F2B02D847
:101A90004FF0A04306E0019B1B6803F01F02019B6F
:101AA0001A60034B184603B05DF804FBCCF3020048
:101AB0000003005000B585B00190084611461A4653
:101AC00003468DF803300B468DF8023013468DF82F
:101AD000013001AB1846FFF7CBFF03909DF80320C0
:101AE0009DF802305B001A439DF801309B001A43B9
:101AF0009DF818301B0242EA03019DF81C301B04BC
:101B0000019A1943039B02F5E07243F8221000BFCB
:101B100005B05DF804FB00B585B003900023019388
:101B2000002300930023012201210398FFF7C2FF45
:101B300000BF05B05DF804FB00B585B003900B460F
:101B40008DF80B309DF80B3000220192002200929C
:101B5000002200210398FFF7ADFF00BF05B05DF83C
:101B600004FB00B585B0019001AB1846FFF780FF7C
:101B70000390019B012202FA03F31946039800F037
:101B800069F800BF05B05DF804FB00B585B00190B1
:101B900001AB1846FFF76CFF0390019B012202FA8C
:101BA00003F31946039800F05FF800BF05B05DF835
:101BB00004FB00B585B0019001AB1846FFF758FF54
:101BC0000390039BD3F804350293029BDA43019BF5
:101BD000012101FA03F31A40039BC3F80825019B76
:101BE00001229A40029B1A40039BC3F80C2500BFB8
:101BF00005B05DF804FB00B583B001900091009B37
:101C0000002B03D10198FFF7C0FF02E00198FFF716
:101C1000A8FF00BF03B05DF804FB00B585B00190DC
:101C200001AB1846FFF724FF0390039800F00AF871
:101C30000246019B22FA03F303F00103184605B0A4
:101C40005DF804FB82B00190019BD3F8043518467F
:101C500002B0704782B001900091019B009AC3F8D6
:101C6000082500BF02B0704782B001900091019B2F
:101C7000009AC3F80C2500BF02B0704700B585B0CC
:101C80000190019B032B03D911493A2002F0CAFCB1
:101C9000104A019B13441B781846FFF7BEFF03460A
:101CA000002B14BF012300238DF80F309DF80F3057
:101CB000002B14BF01230023DBB283F00103DBB24E
:101CC00003F00103DBB2184605B05DF804FB00BF6A
:101CD000ECF3020038F4020000B583B00190019BE0
:101CE000032B03D90749412002F09CFC064A019BC3
:101CF00013441B7800211846FFF77DFF00BF03B097
:101D00005DF804FBECF3020038F4020000B583B088
:101D10000190019B032B03D90749472002F082FC65
:101D2000064A019B13441B7801211846FFF763FF05
:101D300000BF03B05DF804FBECF3020038F40200CE
:101D400000B583B00023019305E00198FFF7DEFFA3
:101D5000019B01330193019B032BF6D900BF00BF08
:101D600003B05DF804FB00B583B00023019305E0E8
:101D70000198FFF7B1FF019B01330193019B032BF6
:101D8000F6D900BF00BF03B05DF804FB00B583B017
:101D90000190019B032B03D907495F2002F042FC0D
:101DA000064A019B13441B781846FFF702FF00BF49
:101DB00003B05DF804FB00BFECF3020038F402004E
:101DC00000B583B00023019309E0094A019B134445
:101DD0001B781846FFF79FFE019B01330193019B7F
:101DE000032BF2D9FFF7ACFF00BF03B05DF804FB93
:101DF00038F4020000B583B0002301930AE0094AD9
:101E0000019B13441B7803211846FFF795FE019BA5
:101E100001330193019B032BF1D900BF00BF03B035
:101E20005DF804FB3CF4020084B001904FF0FF33F6
:101E30000293002303930DE00A4A039B13441B788B
:101E40001A46019B934202D1039B029305E0039B38
:101E500001330393039B032BEED9029B184604B076
:101E6000704700BF3CF4020000B583B00190019BB5
:101E700003F00103002B01D0FFF7A2FF019B03F049
:101E80000203002B01D0FFF7B5FF00BF03B05DF8E0
:101E900004FB000000B585B00190019800F00EF839
:101EA0000390039B002B01D0039B00E0024B1846DC
:101EB00005B05DF804FB00BF40F4020086B001905D
:101EC000164B0593164B04931FE0049A059BD31AF7
:101ED000DB10DA0F13445B10DB00059A1344039305
:101EE000039B1B680293029A019B9A4202DD039BAB
:101EF00004930AE0029A019B9A4203DA039B083397
:101F0000059302E0039B5B6804E0059A049B9A42F8
:101F1000DBD30023184606B0704700BFA0F70200CD
:101F200018F9020000B583B00190019B1B781A4696
:101F30000C4B9B5C002B05D0019B0433184607F02B
:101F4000E7FF0BE0019B1B781A46064B9B5C002BBE
:101F500004D1019B0C33184607F09CF900BF03B075
:101F60005DF804FBD80C002008B500F091FD00F0EE
:101F700081F900F02FF800F071F800BF08BD0000F3
:101F800000B583B003F004FF0190019B002B03D048
:101F90000349AA2002F046FB00BF03B05DF804FB32
:101FA00018F9020008B500F0D1F9FCE762B600BFED
:101FB00000BF704772B600BF00BF704708B500F0A1
:101FC00029F80346184608BD08B500F09DFD0346F4
:101FD000184608BD00B583B0002004F0DBFC01907A
:101FE000019B002B0AD0019B852B07D0019B002B66
:101FF00004D007494FF48A7002F014FBFFF7DEFFAC
:10200000034618460AF0E2FB00BF03B05DF804FB8C
:1020100018F9020000B585B0002302930023039352
:1020200000238DF8073004E00DF10703184604F093
:10203000FFFC9DF80730032BF6D902AB04211846AC
:1020400004F012FD0390039B002B01D0002300E05D
:10205000029B184605B05DF804FB000000B583B094
:1020600004F0F0FD03460193019B012B04D00449C9
:1020700040F2331002F0D6FA00BF03B05DF804FB63
:1020800018F9020000B587B0039002910192039BFA
:10209000002B05D14FF49E7143F65E300FF02CFEFD
:1020A000029B002B05D140F23D1143F65E300FF04C
:1020B00023FE019B002B05D14FF49F7143F65E3048
:1020C0000FF01AFE019B002B17D0029B002B14D09F
:1020D000039B002B11D0039804F016FE029901987F
:1020E00004F0CEFD03460593059B012B06D0054960
:1020F0004FF4A37002F096FA00E000BF07B05DF85D
:1021000004FB00BF18F9020082B0EFF305830193CE
:10211000019B002B14BF01230023DBB2184602B041
:1021200070470000000000002DE9F04385B00190E9
:102130004FF080531B6E18464FF000014FF0000225
:102140004FF0000303000022CDE902234FF080533B
:102150005B6E18464FF00001DDE9022340EA0208F9
:1021600041EA0309CDE90289DDE902234FF0FF309E
:102170004FF0FF0102EA000603EA0107CDE902671A
:10218000DDE902230AA1D1E9000142EA000443EAA1
:102190000105CDE9024502AB0822194601980AF073
:1021A00049FB00BF05B0BDE8F08300BFAFF300807E
:1021B000000000000036CEF4014B1846704700BF07
:1021C0001C0A002008B503F0F9FD00BF08BD00BFE0
:1021D000704708B5FFF7F6FF00BF08BD00B585B032
:1021E0000390029101924FF4CE7143F65E300FF0EE
:1021F00083FD00BF05B05DF804FB000008B504F0E6
:10220000FBFB0248FFF78EFE00BF08BDD400002094
:1022100000B583B0002004F0BDFB0190019B002BB2
:1022200004D0054940F2C11002F0FCF9FEF708FAAB
:1022300000BF03B05DF804FB18F9020000B585B0DB
:10224000019000230393019B002B01D1019B0CE023
:10225000FFF7D4FF019800F095FCFFF7B3FF00F003
:10226000BDFC0390FFF7D4FF039B184605B05DF853
:1022700004FB000008B50FF0A1FF0346002B09D1B5
:10228000054B1B78002B03D1044B1B78002B01D08E
:102290000FF09AFF00BF08BDDD030020E00300201F
:1022A00000B585B0019000910FF088FF0346002B28
:1022B0003DD038E0204B1B68C3F108030393039A19
:1022C000009B9A4201DD009B03931B4B1B681B4A3A
:1022D0001344039A019918460AF0ACFA164B1A688F
:1022E000039B1344144A1360039B019A1344019304
:1022F000009A039BD31A00930F4B1B68082B12D133
:102300000F4B5B88022B0BD90E4A0F4BD31ADB08FD
:102310001B0443F00303082208491846FEF7BEFEDB
:10232000054B00221A60009B002BC3D100E000BFC8
:1023300005B05DF804FB00BF680A0020600A0020B9
:102340005C00002078F00200C0EF020008B50E4BE0
:102350001B68002B14D00D4B5B88022B0DD90C4A47
:102360000C4BD31ADB081B0443F00303064A126824
:1023700092B209491846FEF791FE034B00221A60FB
:10238000FEF73CFF00BF08BD680A00205C0000208B
:1023900078F00200C0EF0200600A002000B583B0B0
:1023A0000190019B5B68002B04D06E214FF66740C3
:1023B0000FF0A2FC019B1B78022B02D80FF012FF3A
:1023C00005E07A214FF667400FF096FC00BF00BF92
:1023D00003B05DF804FB84B04FF010235B690393F6
:1023E0004FF080531B6902934FF080535B69019358
:1023F000039BB3F1FF3F04D1019B029A02FB03F35D
:1024000000E0039B184604B0704708B5FFF7E3FFF0
:102410000346A3F51043184608BD000000B585B07B
:102420000190FFF7D8FF03460D4A1361FFF7EDFF58
:1024300003460B4AD3600B4B0022C3F8082100224D
:102440000949074802F0ACFF0390039B002B03D01F
:102450000649B72002F0E6F800BF05B05DF804FBBE
:10246000C00000206C0A00200000030074F9020084
:102470004FF480431846704702231846704700B552
:1024800085B003900B460192ADF80A30BDF80A30D2
:10249000002B02D16FF00A030DE0019B002B02D14B
:1024A0006FF00B0307E0039BBDF80A201946019863
:1024B0000AF0C0F90023184605B05DF804FB00B52A
:1024C00087B0029101921A4603468DF80F301346E9
:1024D000ADF80C30002305939DF80F30012B02D985
:1024E0006FF0380328E0BDF80C20029B1344B3F5CD
:1024F000804F02D36FF016031EE0019B002B02D128
:102500006FF00B0318E0BDF80C30002B02D16FF018
:102510000C0311E0FFF779FF02469DF80F309B0393
:102520001344029A13440593059BBDF80C201946E9
:1025300001980AF07FF90023184607B05DF804FB04
:1025400000B589B0049103921A4603468DF81730FE
:102550001346ADF8143000230793002306939DF82B
:102560001730012B02D96FF038035CE0BDF814205E
:10257000049B1344B3F5804F02D36FF0160352E06F
:10258000039B002B02D16FF00B034CE0BDF814301D
:102590009B089BB2002B02D16FF00C0343E0FFF7C6
:1025A00034FF02469DF817309B031344049A1344EA
:1025B0000793BDF81430032B06D9BDF8143003F08F
:1025C00003039BB2002B05D04FF4A6714FF6674072
:1025D0000FF092FB00BF0FF00DFE0346002BFAD167
:1025E0000FF0F8FDBDF8143000220092039A07990D
:1025F0000F4802F027FF03460693069B002B05D0E9
:1026000040F25B114FF667400FF076FB00BF0FF012
:10261000F1FD0346002BFAD1069B002B01D10023CC
:1026200001E04FF0FF33184609B05DF804FB00BF2E
:10263000C000002000B587B0029101921A460346FF
:102640008DF80F301346ADF80C309DF80F3002991D
:10265000184600F09BF80346002B0CD100F07AF8E6
:1026600009E000F077F8029A059B13440293019A5F
:10267000059B13440193BDF80C309DF80F00019A9F
:10268000029900F0ADF80590059B9BB2BDF80C20B7
:10269000D31AADF80C30BDF80C30002BE1D100237B
:1026A000184607B05DF804FB00B587B003468DF807
:1026B000073000230593002303939DF80730012B77
:1026C00002D96FF038033FE0FFF79FFE02469DF806
:1026D00007309B0313440593002304932BE000BFB2
:1026E0000FF088FD0346002BFAD10FF073FD002395
:1026F00001220599164802F0A9FF03460393039BA4
:10270000002B05D040F2A5114FF667400FF0F4FA08
:10271000039B002B02D04FF0FF3315E000BF0FF0FA
:1027200069FD0346002BFAD1059B03F58053059301
:10273000049B01330493049B032BD0D99DF80730ED
:1027400018460FF05FFD0023184607B05DF804FB44
:10275000C000002008B50C4BD3F80831002B10D076
:10276000094B93F80001084BD3F80411064BD3F83A
:1027700008319BB2044AFFF7E3FE034B0022C3F883
:10278000082100BF08BD00BF6C0A002082B00346CC
:1027900000918DF80730114BD3F80831002B16D07B
:1027A0000E4B93F800319DF807209A4211D10B4B44
:1027B000D3F80421094BD3F808311344009A9A4204
:1027C00007D1064BD3F80831B3F5807F01D0012340
:1027D00000E00023DBB2184602B070476C0A00200C
:1027E00000B587B0029101921A4603468DF80F306A
:1027F0001346ADF80C301D4BD3F80831002B08D12F
:102800001A4A9DF80F3082F80031184A029BC2F82C
:102810000431164BD3F80831C3F580730593BDF826
:102820000C30059A9A4202D2059BADF80C30BDF8E7
:102830000C30002B13D00D4BD3F808310B4A134446
:10284000BDF80C200199184609F0F4FF074BD3F8A6
:102850000821BDF80C301344044AC2F80831BDF811
:102860000C30184607B05DF804FB00BF6C0A00206E
:1028700000B585B0104B0293FFF7C7FD034603F583
:10288000004301AA04211846FFF7F9FD0390039BBA
:10289000002B0CD102A901AB0422184609F021FF3C
:1028A0000346002B0CBF01230023DBB200E0002312
:1028B000184605B05DF804FBE737DDF600B585B0D6
:1028C00001900B46ADF80230FFF79FFD034603F57C
:1028D00000430433BDF80210019A1846FFF7CFFDFC
:1028E0000390039B184605B05DF804FB00B585B066
:1028F00001900B46ADF802301346ADF80030FFF7FB
:1029000084FD0246BDF80030134403F50043043350
:10291000BDF80210019A1846FFF7B1FD0390039B22
:10292000184605B05DF804FB014B1846704700BF20
:10293000C8F9020084B00190074A02AB92E8030094
:1029400083E80300019B1A4602AB93E8030082E888
:102950000300019804B07047D0F9020082B00190E2
:10296000019BD3F81035DBB2184602B07047000067
:1029700070B586B001900B468DF803309DF803309A
:102980000593019B18464FF000014FF000024FF0F5
:1029900000030B0143EA107302010599C1F12006FF
:1029A000A1F1200022FA01F403FA06F6344323FAD7
:1029B00000F0044323FA01F5CDE90245DDE90223E5
:1029C000012B08BF002A04D3044940F2B32001F0D0
:1029D00029FE029B184606B070BD00BFD8F9020060
:1029E00000B583B001900091019B1B681846FFF76A
:1029F000B5FF034619460098FFF7BAFF034618468D
:102A000003B05DF804FB000008B5FFF7D3FA094BEB
:102A10001B78DBB2012B08D1FFF786FF034618466F
:102A200005F0DAFE034B00221A70FFF7BFFA00BF71
:102A300008BD00BF8C0B002008B5FFF7BBFA0F4B99
:102A40001B78DBB2002B02D100F022F811E0FFF777
:102A50006BFF0346184605F04BFF034683F0010366
:102A6000DBB2002B05D0FFF75FFF0346184605F0E9
:102A7000E3FEFFF79BFA00BF08BD00BF8C0B0020F0
:102A8000024B1B78DBB21846704700BF8C0B00204E
:102A900000B589B04FF47053079303AB1846FFF7A6
:102AA00049FFFFF741FF03AB144A194605F098FDB3
:102AB0000690069B002B03D011496B2001F0B2FD5C
:102AC000FFF732FF034607991846FFF789FF059085
:102AD000FFF72AFF012300930223059A012105F045
:102AE000AAFFFFF721FF0346184605F0A5FE054B98
:102AF00001221A7000BF09B05DF804FB532B0000DF
:102B0000F8F902008C0B002000B583B0FFF752FAF1
:102B1000FFF7B6FF0346012B08D1FFF705FF034679
:102B20000221184605F010FF019001E000230193F7
:102B300013F006F9024613461B019B1A9B020093F1
:102B4000FFF734FA009A019B1344184603B05DF86E
:102B500004FB00B583B003460091ADF80630BDF824
:102B60000630B3F5A27F02D10FF04EFB00E000BFAC
:102B700000BF03B05DF804FB82B0019000BF02B05B
:102B80007047000000B583B001902CF0E1F80346D7
:102B90000F4A1360019B002B15D00E4B0E4A9A6012
:102BA0000C4B0022DA600A4B1B680A4A1360019B37
:102BB0004FF47A7202FB03F3064A53600021054882
:102BC0002CF0D2F800E000BF03B05DF804FB00BFBA
:102BD000900B0020780B0020792B000000B583B00B
:102BE000002301932CF0B4F80246074B1B68D31A5C
:102BF0000193019B03F2E733044AA2FB03239B09E1
:102C0000184603B05DF804FB900B0020D34D621012
:102C100030B58BB027F0D2FF114B6C461D460FCD5F
:102C20000FC40FCD0FC42B6823606B4618462AF0E3
:102C300027FD0990099B002B04D0D52146F67B6027
:102C40000FF05AF8FFF7C3FA012028F029F8022004
:102C500000F0BCF8012028F025F800BF0BB030BD13
:102C60006CFA020000B583B00190019827F0A2FF32
:102C700000BF03B05DF804FB00B583B00346ADF8B8
:102C800006300DF10603184627F092FF00BF03B08F
:102C90005DF804FB00B583B00346ADF806300DF1D6
:102CA0000603184627F088FF00BF03B05DF804FB59
:102CB00000B583B003468DF8073000BF9DF80720AC
:102CC00013461B019B1A9B02184627F0C6FF0346BA
:102CD00083F00103DBB2002BF0D100BF00BF03B0D3
:102CE0005DF804FB00B583B003468DF807309DF80E
:102CF0000730184627F046FF00BF03B05DF804FB1D
:102D000000B583B003468DF807309DF907301846AB
:102D100027F047FF00BF03B05DF804FB00B583B0A8
:102D2000019027F040FF03461A46019B1A7000BF2E
:102D300003B05DF804FB00B583B003468DF807309F
:102D40009DF80730002B14BF01230023DBB2184687
:102D500027F0A6FF00BF03B05DF804FB00B583B009
:102D600003468DF807309DF80730002B14BF012370
:102D70000023DBB2184627F091FF00BF03B05DF8D7
:102D800004FB00B583B00190019B002B02D127F01A
:102D90004AFF01E027F04FFF00BF03B05DF804FBDE
:102DA00008B527F031FF0346032B01D1012300E0D2
:102DB0000023184608BD08B527F026FF0346022B5E
:102DC00001D1002300E00123184608BD00B585B0FD
:102DD00003468DF8073000238DF80F3027F014FFDD
:102DE00003468DF80E309DF80E209DF807309A426C
:102DF0002BD09DF80730023B042B26D801A252F8B5
:102E000023F000BF192E00002D2E00004B2E0000D5
:102E10004B2E00004B2E00009DF80E30032B11D1DD
:102E200027F0FEFE03468DF80F300BE09DF80E30C4
:102E3000022B03D09DF80E30042B05D127F0FBFEAA
:102E400000BF01E000BF00E000BF9DF80F30184652
:102E500005B05DF804FB00BF00B587B00291019298
:102E60001A4603468DF80F3013468DF80E300023B6
:102E70008DF817309DF80F30012B02D0042B07D0AE
:102E80000EE001238DF81730019827F00DFF0EE0BA
:102E90000021019827F0D5FE03468DF8173006E093
:102EA0004FF4DB7146F67B600EF026FF00BF9DF805
:102EB0001730184607B05DF804FB00B585B00390E5
:102EC000029111461A460B468DF8073013468DF8CD
:102ED0000630FFF771F903461A6A01321A62029846
:102EE0000AF0A8FA00BF05B05DF804FB00B583B096
:102EF0000190019827F0B6FE00BF03B05DF804FB17
:102F000000B583B001900B468DF803309DF8033077
:102F1000072B4BD801A252F823F000BF3D2F000031
:102F20004B2F0000592F0000672F0000752F000065
:102F3000832F0000912F00009F2F0000FFF73CF926
:102F400003465A6A01325A6230E0FFF735F9034608
:102F50009A6A01329A6229E0FFF72EF90346DA6A8B
:102F60000132DA6222E0FFF727F903461A6B0132D9
:102F70001A631BE0FFF720F903465A6B01325A63CC
:102F800014E0FFF719F903469A6B01329A630DE0DA
:102F9000FFF712F90346DA6B0132DA6306E0FFF756
:102FA0000BF903461A6C01321A6400BF9DF8033016
:102FB000013B062B18D801A252F823F0D92F0000AC
:102FC000E12F0000D92F0000D92F0000E12F0000D1
:102FD000D92F0000D92F000001200AF065FA03E084
:102FE00004200AF061FA00BF00BF03B05DF804FBE3
:102FF00000B585B0039001930B468DF80B30134656
:103000008DF80A30FFF7D8F803461A6801321A60C3
:103010009DF80A209DF90B10019B03980AF068FAAD
:1030200000BF05B05DF804FB00B583B003468DF822
:1030300007309DF80730062B41D801A252F823F043
:103040005D3000006B3000007930000087300000F8
:1030500095300000A3300000B1300000FFF7ACF85D
:1030600003465A6801325A6029E0FFF7A5F8034683
:103070009A6801329A6022E0FFF79EF80346DA6808
:103080000132DA601BE0FFF797F803461A69013254
:103090001A6114E0FFF790F803465A6901325A6149
:1030A0000DE0FFF789F803469A6901329A6106E05C
:1030B000FFF782F80346DA690132DA6100BF054B97
:1030C00001221A60034B00221A6000BF03B05DF8B2
:1030D00004FB00BFD03E002084B003468DF80730CB
:1030E0009DF807305B08DBB21A460D4B9B5C8DF8F0
:1030F0000F309DF8073003F00103002B04D09DF83A
:103100000F301B09DBB204E09DF80F3003F00F0312
:10311000DBB28DF80E309DF80E30184604B07047C3
:10312000A80B002084B003460A468DF807301346EA
:103130008DF806309DF8073003F00103002B01D015
:103140000F2300E0F0238DF80F309DF8073003F0D7
:103150000103002B04D09DF806301B01DBB201E017
:103160009DF806308DF80E309DF807305B08DBB215
:103170001A46114B9A5C9DF807305B08DBB2194682
:103180009DF80F301340DAB20B4B5A549DF80730BC
:103190005B08DBB21A46084B9A5C9DF807305B0867
:1031A000DBB219469DF80E301343DAB2024B5A5483
:1031B00000BF04B0704700BFA80B002000B585B069
:1031C00003468DF807300023039310E00F4B1A6875
:1031D000039BDB0013440293029B1B789DF807209E
:1031E0009A4201D1029B0DE0039B01330393084BEC
:1031F0001B781A46039B9342E8DB0649882001F0BE
:1032000011FA0023184605B05DF804FB940B00206A
:10321000980B0020C4FA020000B585B003460A46A8
:103220008DF8073013468DF806309DF807301846A4
:10323000FFF7C4FF0390039B002B0BD0039B5B683D
:10324000002B07D0039B5B689DF806109DF80720B4
:103250001046984700BF05B05DF804FB2DE9F04F1C
:1032600085B003460A468DF80F3013468DF80E30B0
:103270009DF80F301846FFF72FFF0346042B00F28E
:10328000B48001A252F823F09D3200000333000005
:103290001F3300004F330000653300009DF80E30EF
:1032A000002B00F09F809DF80F3001211846FFF79A
:1032B00039FF002000F09CFD9DF80F104FF0010237
:1032C0004FF00003A1F12004C1F1200003FA01F73F
:1032D00002FA04F4274322FA00F0074302FA01F647
:1032E000444BD3E9002346EA020100913B4301939A
:1032F000404BDDE90012C3E90012002000F08CFD14
:1033000070E09DF80E30002B01D0022200E0002278
:103310009DF80F3011461846FFF704FF65E09DF851
:103320000E30002B0CD09DF80F3003211846FFF70C
:10333000F9FE9DF80F3001211846FFF76DFF54E0AC
:103340009DF80F3001211846FFF7ECFE4DE09DF887
:103350000E30002B48D19DF80F3004211846FFF79E
:10336000E1FE41E09DF80E30002B06D09DF80F30B5
:1033700003211846FFF7D6FE37E09DF80F300021F5
:103380001846FFF7CFFE9DF80F3000211846FFF7D3
:1033900043FF002000F02CFD9DF80F104FF00102BC
:1033A0004FF00003A1F12006C1F1200003FA01F55E
:1033B00002FA06F6354322FA00F0054302FA01F458
:1033C0006FEA04086FEA05090A4BD3E9002308EA0B
:1033D000020A09EA030B074BC3E900AB002000F027
:1033E0001BFD02E000BF00E000BF00BF05B0BDE86C
:1033F000F08F00BFA00B002000B583B00648074B3C
:103400001B685B080022194600F06CFC019000BFAD
:1034100003B05DF804FB00BF280100209C0B0020D6
:1034200000B587B001900023049328E01C4B1A6874
:10343000049BDB0013440593059B1B78184604F09E
:10344000A3FB03468DF80F30059B5B78012B0CBF67
:1034500001230023DBB21A469DF80F309A420CBFBD
:10346000012300238DF80E30059B1B789DF80E205C
:1034700011461846FFF7F2FE049B01330493094BF3
:103480001B781A46049B9342D0DB074BD3E90023F9
:10349000134301D0FFF7B0FF00BF07B05DF804FB96
:1034A000940B0020980B0020A00B002000B587B0E3
:1034B00001900B468DF80330019BDBB21846FFF7F5
:1034C0007DFE0490049B1B78184604F05DFB0346C8
:1034D0008DF81730049B5B78012B0CBF0123002370
:1034E000DBB21A469DF817309A420CBF0123002325
:1034F0008DF80F309DF80F30002B06D0054BD3E927
:103500000023134301D1FFF777FF00BF07B05DF839
:1035100004FB00BFA00B002000B58BB003900B464E
:1035200001928DF80B30019B092B01D8072367E02E
:1035300004F01CFA034683F00103DBB2002B09D030
:1035400004F0C2F90990099B0893089B002B01D055
:10355000089B55E02C4A039B13602C4A9DF80B30C6
:1035600013702B4A019B136020220021294809F087
:103570008AF929494FF000024FF00003C1E9002306
:1035800031E09DF80B30DB00039A134407930323CB
:103590008DF8143000238DF815309DF816306FF338
:1035A00000038DF816309DF816306FF341038DF847
:1035B00016309DF816306FF382038DF81630079B96
:1035C0009B788DF81530079B1B78184605AB134A7E
:1035D000194604F0D7F90990099B0693069B002B26
:1035E00001D0069B0CE09DF80B305A1E8DF80B2085
:1035F000002BC6D10A4A00210A4800F03FFB0346CF
:1036000018460BB05DF804FB940B0020980B0020CB
:103610009C0B0020A80B0020A00B0020AD34000064
:10362000213400001CFB020000B583B0114B1B6865
:10363000002B04D1104940F2351000F0F3FF0023B5
:1036400001930CE00B4B1A68019BDB0013441B78C1
:103650000121184604F010FA019B01330193074B36
:103660001B781A46019B9342ECD30023184603B003
:103670005DF804FB940B0020C4FA0200980B0020B4
:1036800000B583B002900091019244F201007146AE
:103690006A46FEF7A3FD03B000BD00BFF0B583B0DE
:1036A000124800F097FF034618464FF00001104BF8
:1036B000D3E90023861841EB0307CDE900670D4BE2
:1036C000D3E90023DDE90001994208BF904207D207
:1036D000DDE9002312F1807443F10005CDE90045D6
:1036E000DDE900231046194603B0F0BD500100206B
:1036F000D00B0020D80B002088B001900091019BD6
:103700000793009B0693079BD3E90223CDE904238B
:10371000069BD3E90223CDE90223DDE90423DDE999
:103720000201994208BF90422CBF01230023DBB263
:10373000184608B07047000030B585B00190019B75
:103740005B69002B03D12C49A22000F06BFF002302
:103750008DF80F30294B1B78002B48D0019B002B94
:1037600045D0019B93F82030DBB2002B3FD0FFF710
:1037700095FF019BD3E90223994208BF90422ED3C3
:10378000019B1B69002B03D1019B002283F82020A1
:10379000019B5B69019A926910469847019B1B69DE
:1037A000002B24D0019B93F82030DBB2002B1ED0DD
:1037B000019BD3E90201019B1B691A464FF00003EC
:1037C000841841EB0305019BC3E90245019B19469F
:1037D0000B4802F03FFE01238DF80F3007E0019BFC
:1037E0001946074802F036FE01238DF80F309DF888
:1037F0000F30184605B030BD40FB0200CC0B002056
:103800009CFB0200F0B589B0019000910D23079355
:10381000009B00221A70019BD3E90245FFF73EFF8F
:1038200002460B46A61A65EB0307CDE90467DDE9FE
:103830000423012A73F100031BDB049BB3F5350F4E
:1038400005D300F0AFFA0246154B134403E0019B89
:10385000D3E90223134603934FF49603039A0021FE
:10386000104800F0B9FD0790079B002B05D10123FC
:1038700013E000210B4800F087FE079B0D2B07D1BA
:103880000198FFF759FF03461A46009B1A7003E0A0
:103890000549F52000F0C6FE0023184609B0F0BD2A
:1038A000FFFFB4005001002040FB020000B583B0D0
:1038B000044802F009FE0190019B184603B05DF830
:1038C00004FB00BF9CFB020000B583B0044802F07B
:1038D0001DFE0190019B184603B05DF804FB00BF7C
:1038E0009CFB020000B583B0FFF7E0FF0190019B55
:1038F000002B03D0019B002283F82020019B002B8A
:10390000F2D100BF00BF03B05DF804FB054BD3E963
:10391000002312F1807043F10001024BC3E9000162
:1039200000BF7047D00B002000B583B00190134B4F
:103930001B68002B1DD0019800F04CFE0F4B1B683C
:10394000D3E90223134623F07F43194600F01EFA01
:103950000346B3F5960F04D309494FF4957000F070
:1039600061FE064B1B681846FFF7E6FE034B00227C
:103970001A6000BF03B05DF804FB00BFC80B002055
:1039800040FB020000B583B00190FFF787FE0246BE
:103990000B460349C1E9002300BF03B05DF804FBF7
:1039A000D80B002000B585B00190FFF78DFF039084
:1039B00000238DF80B30039B002B49D02C4B1B6848
:1039C000002B03D101238DF80B301AE0039BD3E9C0
:1039D0000201274B1B68D3E90223994208BF90429A
:1039E0000FD201238DF80B30214B1B6893F8203048
:1039F000DBB2002B05D01E4B1B6819461D4802F098
:103A000029FD9DF80B30002B2AD0FFF74FFF0390C4
:103A10000DF10A0319460398FFF7F4FE0346002B45
:103A200012D0134B1B68002B02D1019800F0E0FB71
:103A30000F4A039B13609DF80A3083F00103DBB249
:103A4000002BB2D000BF0EE0094B00221A60ACE799
:103A5000074B1B68002B05D1019800F0DFFB01E04C
:103A600000BF00E000BF00BF05B05DF804FB00BF71
:103A7000C80B00209CFB020000B587B001902D4AC6
:103A800003AB1946104600F0B9FE05904AE0059BCD
:103A90001B78022B30D0022B34DC002B02D0012B00
:103AA00016D02FE0059B5B6893F82030DBB283F0E3
:103AB0000103DBB2002B27D0059B5B68012283F852
:103AC0002020059B5B6819461B4802F0C3FC1BE0E5
:103AD000059B5A68194B1B689A4203D1174B002269
:103AE0001A6012E0059B5B681946134802F022FD3C
:103AF00003468DF8133008E0FFF7F4FE104B012267
:103B00001A7002E000BF00E000BF0A4A03AB19468A
:103B1000104600F08CFE074A03AB1946104600F031
:103B20006DFE0590059B002BB1D100BF00BF07B013
:103B30005DF804FB580100209CFB0200C80B00202C
:103B4000CC0B002000B583B00190019800F00FFD70
:103B50000346002B01D0FFF7D9FE0021019800F0A9
:103B600024FD0346002B02D00198FFF7DDFE012162
:103B7000019800F01AFD0346002B02D00198FFF7D0
:103B800001FF0198FFF778FF0198FFF70BFF00BFD7
:103B900003B05DF804FB000008B5024800F027FD03
:103BA00000BF08BD5001002000B585B0034600915C
:103BB0008DF80730114A02AB1946104600F0F1FDAE
:103BC0000390039B002B13D0039B9DF807201A70D2
:103BD000039B009A5A60094A02AB1946104600F04E
:103BE000F9FD0346002B01D0FFF7D6FF002300E0CC
:103BF0000423184605B05DF804FB00BF58010020FF
:103C000000B583B0164B1B68009316480823582252
:103C1000154900F093FD0190019B002B01D0019B01
:103C200019E06B46114A1946114800F059FA019003
:103C3000019B002B01D0019B0DE001210C4800F0FD
:103C400085FC01230B4A0121094800F0FDFA0A4BCB
:103C500001221A70019B184603B05DF804FB00BFF7
:103C600098FB020058010020E00B0020453B0000BB
:103C700050010020FFFF7F00CC0B002000B587B073
:103C800003900B4601928DF80B30039B002B04D15F
:103C9000134940F22E2000F0C5FC019B002B04D1FB
:103CA0000F4940F22F2000F0BDFC019B002B01D1F9
:103CB000072310E0039B1B680593059B019A5A613B
:103CC0009DF80B30012B0CBF01230023DBB21A46F9
:103CD000059B1A610023184607B05DF804FB00BF7E
:103CE00040FB020030B587B0039002910192039B24
:103CF000002B04D1164940F23E2000F093FC039BB8
:103D00000593059B93F82030DBB2002B01D00023F4
:103D10001AE0059B019A9A61FFF7C0FC029B1A46C4
:103D20004FF00003841841EB0305059BC3E90245EE
:103D3000059B1B69002B02D0059B029A1A6105990D
:103D40000020FFF731FF0346184607B030BD00BF23
:103D500040FB020000B585B00190019B002B04D10F
:103D600009494FF4157000F05DFC019B0393039B20
:103D7000002283F8202003990120FFF715FF034656
:103D8000184605B05DF804FB40FB020082B00190CC
:103D90000091019A009BD31A23F07F43184602B08A
:103DA0007047000008B5034800F014FC03461846AD
:103DB00008BD00BF5001002072B600BF034B1B6856
:103DC0000133024A136000BF704700BF3C0C002063
:103DD000064B1B68013B054A1360044B1B68002B14
:103DE00001D162B600BF00BF704700BF3C0C00208D
:103DF00000B583B0019000F025F80346012B03D0F5
:103E00000449432000F00EFCFFF7D6FF00BF03B0CB
:103E10005DF804FBA8FB020000B583B003468DF8F3
:103E2000073000F00FF80346012B03D0044951205E
:103E300000F0F8FBFFF7CCFF00BF03B05DF804FB18
:103E4000A8FB020084B0EFF305830193019BC3F349
:103E500008030393039B002B0DD1EFF3148300930E
:103E6000009B0293029B03F00103002B0CBF012374
:103E70000023DBB200E00123184604B070470000C5
:103E800082B003468DF807309DF8073003F01F021B
:103E900005499DF907305B09012000FA02F241F85B
:103EA000232000BF02B0704700E100E082B003466B
:103EB0008DF807309DF8073003F01F0206499DF981
:103EC00007305B09012000FA02F2403341F8232059
:103ED00000BF02B0704700BF00E100E082B00346BF
:103EE00000918DF807309DF90730002B0CDA009B0C
:103EF000DAB20C499DF8073003F00F03043B52017E
:103F0000D2B20B441A7609E0009BDAB206499DF959
:103F100007305201D2B20B4483F8002300BF02B035
:103F2000704700BF00ED00E000E100E000B583B0A5
:103F300003460A468DF8073013468DF806309DF883
:103F40000630072B03D908496B2000F06BFB9DF866
:103F500006209DF9073011461846FFF7BFFF00BF46
:103F600003B05DF804FB00BF04FC020000B583B0A1
:103F700003468DF807309DF907301846FFF780FF9C
:103F800000BF03B05DF804FB00B585B00190019B54
:103F9000002B0AD0074B43F001030393019B9B01C5
:103FA0000293039B0298984700E000BF05B05DF8BC
:103FB00004FB00BFF0FC020084B003900291019268
:103FC000039B029A02F5A872019943F8221000BFE0
:103FD00004B0704782B001900091019B009A02F5F5
:103FE000A87253F82230184602B0704782B0019090
:103FF0000091019B009AC3F8042300BF02B07047F0
:1040000082B001900091019B009AC3F8082300BF81
:1040100002B0704782B001900B46ADF80230BDF897
:104020000230019A13441B68184602B0704784B0EE
:1040300001900B46ADF80230BDF80230019A1344EE
:1040400000221A60BDF80230019A13441B680393E2
:10405000039B00BF04B0704782B00190019BD3F86E
:104060000435184602B0704700B583B00190009146
:10407000009BB3F5805F04D306494FF4BE7000F097
:10408000D1FA019B009AC3F8082500BF03B05DF880
:1040900004FB00BF24FC020082B001900B468DF8A7
:1040A00003309DF80320019B13441A46012313603B
:1040B00000BF02B0704782B001900091019B009A4E
:1040C000C3F8442300BF02B0704782B00190009152
:1040D000019B009AC3F8482300BF02B0704700005C
:1040E00000B587B0039002910192039B002B03D18E
:1040F0003749552000F096FA029B002B03D1344932
:10410000562000F08FFA019B002B03D13049572035
:1041100000F088FA039B5B7919462E4A019B42F80E
:104120002130039B5B792C4ADB0013441B79002B65
:1041300012D008230593294B5B88012B0AD9284A02
:10414000284BD31ADB081B0443F002032649184608
:10415000FCF742FF059B36E0039B1A68029B1B8815
:1041600019461046FFF780FF039B93F90420029B3A
:104170009B7819461046FFF7D9FE039B93F904304C
:104180001846FFF7F3FE039B5B79134ADB001344E9
:1041900001221A71039B5B7919460F4A039B42F86F
:1041A0003130002305930D4B5B88022B0AD90C4A52
:1041B0000C4BD31ADB081B0443F003030B491846CE
:1041C000FCF70AFF059B184607B05DF804FB00BF2B
:1041D00044FC0200400C0020440C0020240000207D
:1041E00008F00200C0EF020098FC0200BCFC0200D4
:1041F00000B583B00190019B002B03D106498720B5
:1042000000F010FA019B1B6800211846FFF744FFDD
:1042100000BF03B05DF804FB44FC020000B583B0AE
:104220000190019B002B03D106498D2000F0FAF983
:10423000019B1B6804211846FFF72EFF00BF03B047
:104240005DF804FB44FC020000B587B003900291C6
:1042500001928DF80330039B002B03D12149962056
:1042600000F0E0F94FF48032029B02FA03F3059369
:10427000029B50339BB29B00ADF81230019B23F0A0
:104280007F430193039B1B6805991846FFF7B8FE0F
:10429000039B1B6805991846FFF717FF039B1B68D4
:1042A000BDF8122011461846FFF7C1FE039B1B689C
:1042B000019A02991846FFF77FFE039B1B68059938
:1042C0001846FFF7F8FE9DF80330002B05D0039B3E
:1042D0001B6805991846FFF789FE00BF07B05DF817
:1042E00004FB00BF44FC020000B585B003900291BE
:1042F00013468DF80730039B002B03D10B49A920EF
:1043000000F090F9039B1B6802991846FFF7D3FE53
:104310009DF80730002B05D0039B1B6802991846B7
:10432000FFF764FE00BF05B05DF804FB44FC02002B
:1043300000B583B001900091019B002B03D10A4985
:10434000B32000F06FF9019B1B6800991846FFF736
:10435000BCFE019B1B6800991846FFF751FE00BF89
:1043600003B05DF804FB00BF44FC020000B583B05D
:1043700001900B46ADF80230019B002B03D10F4991
:10438000BA2000F04FF9019B1B68BDF802201146CE
:104390001846FFF73FFE0346002B09D0019B1B6820
:1043A000BDF8022011461846FFF741FE012300E048
:1043B0000023184603B05DF804FB00BF44FC020074
:1043C00082B001900091019A009BD31A23F07F43A1
:1043D000184602B07047000000B58BB00390029100
:1043E00001920093039B002B03D15749CD2000F08D
:1043F00019F94FF48032029B02FA03F30993029BEE
:1044000050339BB29B00ADF82230019B23F07F43D9
:10441000019309990398FFF78BFF039B1B681846CC
:10442000FFF71AFE0790039B1B6802991846FFF7D7
:10443000D1FD0690039B1B68079A02991846FFF767
:10444000BBFD039B1B68BDF8222011461846FFF7F1
:10445000EEFD07990698FFF7B3FF0346012B0AD13B
:104460001020FFF791FD039B1B68BDF82220114629
:104470001846FFF7DCFD039B1B681846FFF7ECFDB1
:10448000079007990198FFF79BFF0590039B1B6816
:1044900009991846FFF70FFE059B012B15D1039BC9
:1044A0001868019B01331A460299FFF785FD102019
:1044B000FFF76AFD039B1B681846FFF7CDFD024618
:1044C000079B934235D00D2339E0039B1B68019A6B
:1044D00002991846FFF770FD039B1B681846FFF70B
:1044E000BBFD0790019B013B07991846FFF768FF4A
:1044F0000590009BC3F1FF1303F57F43059A9A4291
:1045000001D90D231BE0059B002B12D1039B1868DA
:10451000019B01331A460299FFF74EFD039B1B686E
:104520001846FFF799FD0246079B934201D00D23E1
:1045300005E0012209990398FFF7D6FE00231846EB
:104540000BB05DF804FB00BF44FC020000B583B073
:1045500001900B468DF803309DF803301A46022176
:104560000198FFF7C1FE00BF03B05DF804FB00B582
:1045700083B001904FF482710198FFF7F7FE034674
:10458000184603B05DF804FB00B583B001900091BC
:104590004FF48032009B02FA03F319460198FFF7AB
:1045A000C7FE00BF03B05DF804FB00B585B0019005
:1045B0000091009B50339BB29B00ADF80E30BDF8CC
:1045C0000E3019460198FFF7D1FE0346184605B094
:1045D0005DF804FB00B583B00190019B1B68184691
:1045E000FFF73AFD0346184603B05DF804FB00B53B
:1045F00083B00190019B93F904301846FFF756FCF5
:1046000000BF03B05DF804FB08B5044B1B68044A07
:1046100012681046984700BF08BD00BF400C00203C
:10462000440C002000B585B003460091ADF806307B
:10463000BDF80630ADF80830009B039302AB1A4674
:10464000002144F20200FDF7C9FD00BF05B05DF88E
:1046500004FB86B001900091019B53E8011F8AB2D0
:10466000D88902449889824228BF121A1889824246
:1046700002BFBFF32F8F002307E0C2EA010243E825
:1046800001200028E9D14FF001038DF80F3005908B
:1046900002910492029A009B1A609DF80F30DBB2DF
:1046A000184606B0704784B00190019951E8013F67
:1046B000C3EA034341E80132002AF7D1039202938F
:1046C00000BF04B0704786B001900091019B53E891
:1046D000021F1FFAA1F2D888824202BFBFF32F8FB8
:1046E00000230DE0D88902449889824228BF121A1B
:1046F000C1EA024243E802200028E8D14FF001035A
:104700008DF80F30059002910492029A009B1A6076
:104710009DF80F30DBB2184606B0704784B00190A8
:10472000019951E8023FC3EA234341E80232002ADB
:10473000F7D10392029300BF04B0704784B0039096
:10474000029111461A460B46ADF806301346ADF8F5
:104750000430029B002B01D10E231FE0BDF8063070
:10476000BDF80420B3FBF2F102FB01F29B1A9BB2ED
:10477000002B01D0092311E0039B029A1A60039BCE
:1047800000225A60039B00229A60039BBDF806201A
:104790009A81039BBDF80420DA810023184604B0F7
:1047A000704700B585B001900091009B19460198B3
:1047B000FFF74FFF0346002B07D0019B1B68009AB1
:1047C000128813440393039B00E00023184605B0AE
:1047D0005DF804FB00B583B001900091009B1A883E
:1047E000009B5B889A4204D10198FFF75CFF01238C
:1047F00000E00023184603B05DF804FB00B585B067
:1048000001900091009B19460198FFF75CFF034659
:10481000002B07D0019B1B68009A52881344039316
:10482000039B00E00023184605B05DF804FB00B5CB
:1048300083B001900091009B1A88009B5B889A428C
:1048400004D10198FFF76AFF012300E00023184616
:1048500003B05DF804FB10B487B001900091019B98
:10486000009A53E8004F104643E8000191F0000F12
:10487000F7D1059404900391059B184607B05DF8A5
:10488000044B704710B487B001900091019B009ACF
:1048900053E8004F44EA020043E8000191F0000FA2
:1048A000F6D1059404900391059B184607B05DF876
:1048B000044B704710B487B001900091019B009A9F
:1048C00053E8004F44EA020043E8000191F0000F72
:1048D000F6D1059404900391049B184607B05DF847
:1048E000044B704710B487B001900091019B009A6F
:1048F00053E8004F04EA020043E8000191F0000F82
:10490000F6D1059404900391059B184607B05DF815
:10491000044B704710B487B001900091019B009A3E
:1049200053E8004F04EA020043E8000191F0000F51
:10493000F6D1059404900391049B184607B05DF8E6
:10494000044B704710B487B001900091019B009A0E
:1049500053E8004F04EB020043E8000191F0000F20
:10496000F6D1059404900391049B184607B05DF8B6
:10497000044B704710B487B001900091019B009ADE
:1049800053E8004FA4EB020043E8000191F0000F50
:10499000F6D1059404900391049B184607B05DF886
:1049A000044B704700B583B0019001210198FFF7D7
:1049B00069FF0346184603B05DF804FB00B583B0F9
:1049C000019001210198FFF775FF0346184603B0D7
:1049D0005DF804FB00B583B0019000210198FFF75A
:1049E00081FF0346184603B05DF804FB00B583B0B1
:1049F000019000210198FFF78DFF0346184603B090
:104A00005DF804FB00B583B001900B468DF80330D0
:104A1000019B002B03D10849E820FFF703FE019B0F
:104A2000DA689DF803300199898A01FB03F3134486
:104A3000184603B05DF804FBF8FC020000B583B033
:104A400001900091019B002B03D10849F520FFF74D
:104A5000E9FD009B019AD2689B1A019A928AB3FBE6
:104A6000F2F3DBB2184603B05DF804FBF8FC020079
:104A700000B585B00190019B002B01D10E234CE0C5
:104A8000019B1B68002B03D12649FF20FFF7CAFDBD
:104A9000019B5B68002B04D122494FF48070FFF723
:104AA000C1FD019B9B68002B04D11E4940F20110FF
:104AB000FFF7B8FD019BDB68002B04D119494FF4C7
:104AC0008170FFF7AFFD019B9B8A002B04D1154934
:104AD00040F20310FFF7A6FD019B9A68019B5B68FB
:104AE000D31A8DF80F30019B1B68019A52681A6027
:104AF00007E0019B1A681368591C11609DF80F208C
:104B00001A709DF80F305A1E8DF80F20002BF0D12F
:104B1000019B1B6800221A710023184605B05DF83E
:104B200004FB00BFF8FC020000B585B00190019BBA
:104B3000002B04D11C494FF49270FFF773FD002342
:104B400003930020FFF754F9019B1B681A68019B2F
:104B50005B689A421FD9019B1B681A68013A1A6068
:104B60001B681B7819460198FFF74CFF0390019BC7
:104B70009A68019B1B681B68D31A8DF80B30019B48
:104B80001B681B799DF80B209A4204D9019B1B6876
:104B90009DF80B201A710020FFF73EF9039B184681
:104BA00005B05DF804FB00BFF8FC020010B584B04E
:104BB00001900091019B002B04D1114940F2471054
:104BC000FFF730FD009B002B04D10D494FF4A4707A
:104BD000FFF728FD009B03930020FFF709F9019BD5
:104BE0001B681C68621C1A6003990198FFF726FF76
:104BF000034623700020FFF70FF900BF04B010BD7B
:104C0000F8FC020000B583B00190019B002B03D19A
:104C10000C493120FFF706FD019B9B68002B0CD04F
:104C2000019B5B69019A1069019A1168019A926867
:104C30009847019B00229A6000E000BF03B05DF836
:104C400004FB00BF50FD02000EB400B584B001901B
:104C5000019B002B03D118494220FFF7E3FC019B85
:104C60005B69002B03D114494320FFF7DBFC019B58
:104C70001B68002B03D110494420FFF7D3FC019B94
:104C80005B68002B03D10C494520FFF7CBFC059B4B
:104C9000002B0AD00023039306AB039303AB1A4601
:104CA0000599019800F0B8F900E000BF04B05DF884
:104CB00004EB03B0704700BF50FD020000B583B0A5
:104CC00001900B468DF803309DF803300A2B03D179
:104CD0000D210198FFF7F2FF019B1A68019B9B6869
:104CE000581C0199886013449DF803201A70019B99
:104CF0009A68019B5B689A4202D30198FFF782FF92
:104D000000BF03B05DF804FB00B587B003900291CB
:104D10000192009300230593009B03F00103002BF5
:104D200024D00BE0029B01330293059B01330593D2
:104D30009DF8133019460398FFF7C0FF029B1B78BC
:104D40008DF813309DF81330002BEBD106E0019B5A
:104D5000013B019320210398FFF7B0FF019A059BC7
:104D60009A422ED9019B002BF1D12AE0029B002B05
:104D70000BD0029807F0DCFD059006E0019B013B9B
:104D8000019320210398FFF799FF019A059B9A420E
:104D90000FD9019B002BF1D10BE0029B0133029351
:104DA000059B013305939DF8133019460398FFF7CF
:104DB00085FF029B1B788DF813309DF81330002B74
:104DC000EBD100BF07B05DF804FB000000B589B06F
:104DD0000390029101920093029B07930123069393
:104DE00007E0079A019BB2FBF3F30793069B01339D
:104DF0000693079A019B9A42F3D2009A069B9A4225
:104E000001D9009B06930B9B03F00103002B22D1D9
:104E10000A9B002B1FD00B9B03F00203002B06D034
:104E2000009B002B03D130238DF8173002E02023A4
:104E30008DF8173008E00A9B013B0A939DF8173064
:104E400019460398FFF73AFF0A9B002B03D0069AF6
:104E50000A9B9A42EFD301230793009B012B03D9AE
:104E6000009B013B009309E0029A079BB2FBF3F31E
:104E70000493049A019B9A4200D205E0079B019A91
:104E800002FB03F30793E8E7029A079BB2FBF3F3F5
:104E90000493049B079A02FB03F3029AD31A02932A
:104EA000154A049B13441B7819460398FFF706FF25
:104EB000079A019BB2FBF3F30793079B002BE3D107
:104EC0000B9B03F00103002B11D00A9B002B0ED08B
:104ED00006E00A9B013B0A9320210398FFF7EEFEB0
:104EE0000A9B002B03D0069A0A9B9A42F1D300BF7B
:104EF00009B05DF804FB00BFF4FD020000B589B005
:104F00000590049103920293049B002BB8BF5B426F
:104F100006930123079307E0039B069A92FBF3F3A2
:104F20000693079B01330793039B069A9A42F3DA91
:104F3000029A079B9A4201D9029B07930A9B002B76
:104F40000AD0049B002B04DB0B9B03F00403002B13
:104F500002D00A9B013B0A930B9B03F00203002B38
:104F600002D0029B002B16D00B9B03F00103002BF9
:104F700011D10A9B002B0ED006E00A9B013B0A933D
:104F800020210598FFF79AFE0A9B002B03D0079A71
:104F90000A9B9A42F1D3049B002B07DA049B5B42E5
:104FA00004932D210598FFF789FE08E00B9B03F081
:104FB0000403002B03D02B210598FFF77FFE0B9BEA
:104FC00003F00203002B19D00B9B03F00103002B0D
:104FD00014D1029B002B11D10A9B002B0ED006E0AE
:104FE0000A9B013B0A9330210598FFF767FE0A9B55
:104FF000002B03D0079A0A9B9A42F1D304990B9B8A
:1050000001930A9B0093029B039A0598FFF7DEFE2B
:1050100000BF09B05DF804FB00B58FB005900491A6
:105020000392059B002B04D1B64940F25220FFF7B2
:10503000F9FA059B5B69002B04D1B2494FF4157056
:10504000FFF7F0FA059B1B68002B04D1AD4940F235
:105050005520FFF7E7FA059B5B68002B04D1A949AF
:1050600040F25620FFF7DEFA049B002B00F09381FC
:10507000049B1B788DF83730049B013304939DF813
:105080003730002B00F07E819DF83730252B40F023
:105090006D8100230A9301230C93049B1B788DF8E8
:1050A00037309DF83730302B0DD0302B1BDC2B2BBD
:1050B00011D02D2B17D10A9B43F001030A93049BB7
:1050C0000133049312E00A9B43F002030A93049B0A
:1050D000013304930AE00A9B43F004030A93049B00
:1050E0000133049302E000230C9300BF0C9B002BC0
:1050F000D3D1002309939DF837302A2B0CD1039B81
:105100001B68191D039A11601B68099A13440993BF
:10511000049B013304931AE0049B1B788DF837300D
:105120009DF837302F2B12D99DF83730392B0ED8F8
:10513000049B01330493099A13469B0013445B00BC
:105140001A469DF837301344303B0993D3E70023C8
:105150000B93049B1B788DF837309DF837302E2B3E
:105160001DD1049B01330493049B1B788DF83730C9
:105170009DF837302F2B12D99DF83730392B0ED8A8
:10518000049B013304930B9A13469B0013445B006A
:105190001A469DF837301344303B0B93E4E7049BE9
:1051A0001B788DF837309DF837306C2B03D09DF885
:1051B0003730682B07D1049B01330493049B1B7881
:1051C0008DF83730EFE79DF83730252B00F0C4809D
:1051D000252BC0F2C680782B00F3C380582BC0F279
:1051E000C080583B202B00F2BC8001A252F823F073
:1051F000DF5200006353000063530000635300005C
:1052000063530000635300006353000063530000C6
:1052100063530000635300006353000075520000A5
:105220009752000063530000635300006353000073
:105230006353000097520000635300006353000063
:105240006353000063530000635300006353000086
:10525000255300006353000063530000095300000E
:1052600063530000BB52000063530000635300000F
:10527000DF520000039B1B68191D039A11601B6815
:105280000C930C9B8DF81F309DF81F301946059824
:10529000FFF714FD66E0039B1B68191D039A11605C
:1052A0001B680C930A9B0193099B00930B9B0A229A
:1052B0000C990598FFF722FE54E0039B1B68191D0B
:1052C000039A11601B680C930C990A9B0193099B2C
:1052D00000930B9B0A220598FFF778FD42E0039BA1
:1052E0001B68191D039A11601B680C930C990A9B8B
:1052F0000193099B00930B9B10220598FFF766FD15
:1053000030E000BFA0FD0200039B1B68191D039A3B
:1053100011601B6808930A9B099A08990598FFF782
:10532000F3FC1FE0039B1B68191D039A11601B68A7
:105330000C9330210598FFF7C1FC78210598FFF701
:10534000BDFC0C990023019308230093082310222D
:105350000598FFF73BFD05E025210598FFF7AEFC1A
:1053600000E000BF049B0133049305E09DF8373053
:1053700019460598FFF7A2FC049B1B78002B7FF4CD
:1053800077AE00E000BF059B1B7B002B04D0059887
:10539000FFF738FC00E000BF0FB05DF804FB00BF72
:1053A00000B587B0059004910392059B002B14D1A2
:1053B0001D4B5B88002B0ED01C4A1D4BD31ADB08FB
:1053C0001B0443F001001B4A1B490E2300930B46AC
:1053D0001A49FBF734FE0E2321E0049B002B14D165
:1053E000114B5B88002B0ED0104A114BD31ADB08EF
:1053F0001B0443F00100124A0F490E2300930B4691
:105400000E49FBF71CFE0E2309E0059B049A1A6067
:10541000059B1B681B680399059898470346184627
:1054200007B05DF804FB00BF4800002050F0020008
:10543000C0EF020014FE0200B8FF02001CFE0200D2
:1054400048FE020010B586B00590049103920293C5
:10545000059B002B14D1704B5B88002B0ED06F4A3C
:105460006F4BD31ADB081B0443F001006D4A6E49F1
:105470000E2300930B466D49FBF7E1FD0E23C7E0B9
:10548000039B002B14D1644B5B88002B0ED0634A26
:10549000634BD31ADB081B0443F00100644A6249E2
:1054A0000E2300930B466149FBF7C9FD0E23AFE0C5
:1054B000059B1B68002B14D1574B5B88002B0ED02B
:1054C000564A574BD31ADB081B0443F00100594AD4
:1054D0005549082300930B465449FBF7B0FD0823B8
:1054E00096E0029B002B14D14B4B5B88002B0ED017
:1054F0004A4A4B4BD31ADB081B0443F001004E4AC7
:105500004949092300930B464849FBF798FD0923B5
:105510007EE0059B5B685A68029BB3FBF2F102FBDD
:1055200001F29B1A002B14D03B4B5B88002B0ED052
:105530003A4A3B4BD31ADB081B0443F001003F4AB5
:105540003949092300930B463849FBF778FD0923B5
:105550005EE0049800F042F90346002B14D12E4B74
:105560005B88002B0ED02D4A2D4BD31ADB081B0471
:1055700043F00100324A2C49102300930B462B497B
:10558000FBF75DFD102343E0039B184600F026F96E
:105590000346002B14D1204B5B88002B0ED01F4AF2
:1055A0001F4BD31ADB081B0443F00100254A1E4998
:1055B000102300930B461D49FBF741FD102327E004
:1055C000029A0499059800F0EFF80346002B14D1D5
:1055D000114B5B88002B0ED0104A114BD31ADB08FD
:1055E0001B0443F00100184A0F49102300930B4697
:1055F0000E49FBF724FD10230AE0059B1B68DC68BD
:10560000089B0093029B039A04990598A0470346C0
:10561000184606B010BD00BF4800002050F0020040
:10562000C0EF020014FE0200CCFF02001CFE0200CC
:10563000A8FE020050FE020064FE0200B0FE02005E
:10564000DCFE0200F4FE020018FF020010B586B076
:105650000590049103920293059B002B14D1484BB3
:105660005B88002B0ED0474A474BD31ADB081B043C
:1056700043F00100454A46490E2300930B46454935
:10568000FBF7DDFC0E2378E0059B1B68002B14D193
:105690003B4B5B88002B0ED03A4A3B4BD31ADB08BE
:1056A0001B0443F001003C4A3949082300930B4690
:1056B0003849FBF7C4FC08235FE0039B002B14D19F
:1056C0002F4B5B88002B0ED02E4A2F4BD31ADB08B2
:1056D0001B0443F00100314A2D49092300930B4676
:1056E0002C49FBF7ACFC092347E00499059800F02E
:1056F00082F80346002B14D1214B5B88002B0ED07F
:10570000204A214BD31ADB081B0443F00100244A32
:105710001F49102300930B461E49FBF790FC1023F2
:105720002BE0059B5B681B68039A02FB03F31A4698
:105730000499059800F038F80346002B14D1104B5B
:105740005B88002B0ED00F4A0F4BD31ADB081B04CB
:1057500043F00100134A0E49102300930B460D49F4
:10576000FBF76DFC102308E0059B1B681C69029B7E
:10577000039A04990598A0470346184606B010BD41
:105780004800002050F00200C0EF020014FE0200AA
:10579000E0FF02001CFE020050FE020064FE020058
:1057A00040FF020068FF020084B003900291019262
:1057B000039BDB68029A9A4209D3029A019B134425
:1057C0005A1E039B1B699A4201D8012300E0002363
:1057D00003F00103DBB2184604B0704782B00190B9
:1057E000019B03F00303002B0CBF01230023DBB25A
:1057F000184602B0704782B001900091019B5B682F
:105800001B685A1E009B1340002B0CBF0123002372
:10581000DBB2184602B0704700B58BB0039001921E
:1058200000930B468DF80B30039B9B68002B13D025
:105830009DF80B308DF8103000230593009B0693E4
:10584000019B07930C9B08930D9B0993039B9B68FB
:1058500004AA1046984700E000BF0BB05DF804FBB7
:1058600082B001900091019B024A5A6000231846C1
:1058700002B07047F4FF020000B583B001900091C0
:105880000348FFF7B3F80023184603B05DF804FBA4
:105890004C0C002000B585B003900291019200935A
:1058A000029B009A1946019806F0C4FF002318468F
:1058B00005B05DF804FB000000B587B005900491C9
:1058C000039202931148FFF76DF80346002B01D0B5
:1058D000112316E00422029BB3FBF2F31A4603994C
:1058E000049801F051FA0948FFF780F8089B0193EA
:1058F000029B0093049B039A01210598FFF78CFFFC
:105900000023184607B05DF804FB00BF4C0C0020D4
:1059100000B589B005900491039202930023079388
:105920001548FFF73FF80346002B0ED011231EE069
:105930004FF48052079B03FB02F2049B134418466A
:1059400001F0FEF9079B01330793079A039B9A42E4
:10595000EED10948FFF74AF8029B0193039B00939D
:10596000049B002202210598FFF756FF00231846EA
:1059700009B05DF804FB00BF4C0C002082B0019020
:105980000091009B184602B0704782B001900091D0
:105990000023184602B0704782B00190044B1B6888
:1059A000002B14BF01230023DBB2184602B070475E
:1059B0004C0C002000B583B001900198FFF758F817
:1059C0000346184603B05DF804FB00B58BB00190A8
:1059D0000091019B9B8A043B0793009A079B134409
:1059E000DA1C079BB2FBF3F38DF81B300198FFF72D
:1059F0009BF80590059B002B01D1002338E0059B07
:105A000000221A71059B01225A71079B9AB2059BCD
:105A1000DA80059B09939DF81B30013B0493099B99
:105A2000019A1A60002308931DE00198FFF77CF8A3
:105A30000390039B002B0ED0059B5B790133DAB2F8
:105A4000059B5A71099B039A1A60039B019A1A607D
:105A5000039B099304E0059800F00EF8002307E08B
:105A6000089B01330893089A049B9A42DDD3059B57
:105A700018460BB05DF804FB00B58BB00190019B9C
:105A80000793079B5B798DF81B30019B08939DF86A
:105A90001B30013B05930023099305E0089B1B681D
:105AA0000893099B01330993099A059B9A42F5D300
:105AB000089B1B680493019B0893002309930BE048
:105AC000089B1B68039308990498FFF76FF8039BE2
:105AD0000893099B013309939DF81B30099A9A4258
