:1000000000000420750300005D0300005F03000092
:1000100061030000630300006503000000000000AE
:100020000000000000000000000000006703000066
:1000300069030000000000006B0300006D03000076
:1000400005790000C1C602009D8600006F03000014
:100050006F0300006F030000B58300006F03000012
:100060006F0300006F0300006F0300006F030000C8
:100070006F030000918A00006F0300006F0300000F
:100080006F030000D94500006F0300006F030000FC
:100090006F0300006F0300006F0300006F03000098
:1000A0006F0300006F0300001D9300006F0300004A
:1000B0006F0300006F03000000000000000000005C
:1000C0006F0300006F0300006F0300006F03000068
:1000D00055EF02006F0300006F0300006F03000084
:1000E0006F0300006F0300006F03000000000000BA
:1000F000000000006F030000000000006F0300001C
:1001000000000000000000000000000000000000EF
:1001100000000000000000000000000000000000DF
:1001200000000000000000000000000000000000CF
:1001300000000000000000000000000000000000BF
:1001400000000000000000000000000000000000AF
:10015000000000000000000000000000000000009F
:10016000000000000000000000000000000000008F
:10017000000000000000000000000000000000007F
:10018000000000000000000000000000000000006F
:10019000000000000000000000000000000000005F
:1001A000000000000000000000000000000000004F
:1001B000000000000000000000000000000000003F
:1001C000000000000000000000000000000000002F
:1001D000000000000000000000000000000000001F
:1001E000000000000000000000000000000000000F
:1001F00000000000000000000000000000000000FF
:10020000354936480A1A02D0072291438D463449AF
:1002100034480A1A06D00722914381F30988022242
:1002200082F3148830483149314A00F044F83148AB
:100230003149324A00F03FF831483249324A00F041
:100240003AF832483249334A00F035F832483349F7
:10025000334A00F030F833483349344A00F02BF881
:1002600033483449344A00F026F8344834490022EF
:1002700000F02CF833483449002200F027F83348C6
:100280003349091A082902DB002202604160314A21
:1002900090471F481F49884205D00268043003B4C4
:1002A000904703BCF7E700208646EC46002000217B
:1002B000294A9047FEE7884207D0521A05D00378B2
:1002C00001300B700131013AF9D17047884202D0F8
:1002D00002700130FAE770470000042000E00320BC
:1002E000000004200000042004260300DC0000209D
:1002F0006C040020D0030000D0030000FAF40200D8
:1003000004260300DC000020DC000020E0F60200F0
:10031000E0F60200E0F60200E0F60200E0F602007D
:10032000E0F60200E0F60200E0F602000326030019
:10033000942903006C0400206C0400206C0400204D
:10034000964A0020984A0020984A0020984A0020A7
:10035000986A00209D03000015BE0000FEE7FEE73E
:10036000FEE7FEE7FEE7FEE7FEE7FEE7FEE7FEE765
:1003700000F002B8FFF7FCBF0F484FF007018843B9
:1003800085460E4880470E48016841F470010160BF
:10039000BFF34F8FBFF36F8FFFF732BF09480A4992
:1003A0000A4A884207D0521A05D0037801300B70F0
:1003B0000131013AF9D170470000042095C40000D2
:1003C00088ED00E004F6020000000020DC000020C0
:1003D000FEE700B5A1B00590049103920293049842
:1003E00006F06CF8039B1593029B1693002317935A
:1003F00000238DF8603000231993229B1A93002369
:100400001F930FA91F9B0822049806F031F90823B7
:100410001F93119B1293BDF84030ADF84C30BDF8DE
:100420004230ADF84E3000238DF851309DF83C300D
:1004300003F00303DBB2012B26D10F9BC3F39523FB
:100440001C939DF83C30C3F3C203DBB28DF85030EF
:10045000BDF83C30C3F38313DBB21B931B9B9A00A4
:1004600009A91F9B049806F003F91B9B9B001F9A88
:1004700013441F9312AA09A915AB009313461B9AA4
:100480001C9801F089F92FE09DF83C3003F003033C
:10049000DBB2022B28D1BDF83E30C3F389139BB2E7
:1004A0001E939DF83C30C3F3C203DBB28DF850308D
:1004B0001E9B082B28BF08231D9307A91F9B1D9A6D
:1004C000049806F0D5F81F9A1D9B13441F931E9A9B
:1004D0001D9BD31A1E9315AB12AA07A81D9901F0F4
:1004E000FDF91E9B002BE3D1049805F0F6FF00BF39
:1004F00021B05DF804FB000000B583B00190019BC2
:100500001B781A460C4B9B5C002B05D0019B0433D7
:1005100018460AF0F9F80BE0019B1B781A46064BC7
:100520009B5C002B04D1019B0C33184609F0AEFAFA
:1005300000BF03B05DF804FB080D002000B587B0D4
:100540000390029113468DF8073000230593039B17
:100550001B781A46114B9B5C002B09D0039B04337C
:100560009DF80720029918460AF024F905900FE03B
:10057000039B1B781A46094B9B5C002B08D1039BFD
:100580000C339DF807200299184609F0F7FA0590F8
:10059000059B184607B05DF804FB00BF080D00205E
:1005A00082B001900091034B01221A7000BF02B08B
:1005B000704700BFAC04002030B58DB003468DF805
:1005C00007301A4B02AC1D460FCD0FC495E80F0043
:1005D00084E80F00032302934FF0FF3303934FF09F
:1005E000FF3304934FF0FF3305934FF0EB73089301
:1005F0009DF80730002B01D00D4A00E0002202AB2D
:1006000019460C4806F07EFE0B900B9B0A930A9B42
:10061000002B04D0084A43210A9803F019F8074A2E
:100620009DF80730137000BF0DB030BD44F70200D5
:10063000A1050000DC000020E0F60200AD0400206F
:1006400000B583B001238DF807309DF807301846B8
:10065000FFF7B2FF00BF03B05DF804FB00B589B03F
:10066000039002910192019B8DF81F30124B0022E2
:100670001A709DF81F301A4602991048FFF75EFF66
:100680000690069B0593059B002B04D00C4A532132
:10069000059802F0DDFF00BF0A4B1B78002B07D046
:1006A000054B1B78DBB283F00103DBB2002BF3D1E7
:1006B00000BF09B05DF804FBAC040020DC000020A2
:1006C000E0F60200AD04002000B585B00390029171
:1006D000054B00934023054A02990398FFF779FEE2
:1006E00000BF05B05DF804FB5D0600006C0400204F
:1006F00082B0019000BF02B07047000000B583B027
:1007000001900548FFF7F8FE0020FFF755FF00BFF6
:1007100003B05DF804FB00BFDC00002082B0019054
:10072000019BDB6801225A7100BF02B070470000D4
:1007300000B583B04FF0FF330193FFF781FF042131
:10074000084800F03DFF0190019B002B03DA0649A9
:10075000482003F04FFF0348FFF7E0FF00BF03B05E
:100760005DF804FBDCF5020084F7020000B583B0FD
:1007700001900091019B1B681B68009901989847A4
:1007800000BF03B05DF804FB00B583B00190019B8E
:100790001B689B680198984700BF03B05DF804FB95
:1007A00082B001900B468DF80330019BDB689DF809
:1007B00003201A7100BF02B0704782B00190019B04
:1007C000DB681B79184602B0704782B00190019B2C
:1007D000DB685B79184602B07047000000B58DB049
:1007E000019000913F4BFF229A603E4B00221A601D
:1007F0003C4B00225A603B4B0022C3F81824394B73
:100800000022C3F81424374B002283F820243648F2
:1008100005F0B8FD0890089B002B01D0089B5CE018
:10082000324806F0D9F9324A324BD31ADB08079323
:1008300000230B9332E00023099300230A931DE069
:100840000B9A0A9B9A4216D00B9BDB00294A134451
:100850001B6803930A9BDB00264A13441B68029320
:100860001422029903980CF0B7FA0346002B02DD1C
:10087000099B013309930A9B01330A930A9A079B48
:100880009A42DDD30B9B9B001B4A13440493099BA4
:100890009AB2049B1A800B9B01330B930B9A079B14
:1008A0009A42C8D300230B9312E00B9B9B00124A81
:1008B000134406930B9B9B00104A13440593069B1D
:1008C00000225A80059B00221A600B9B01330B9378
:1008D0000B9A079B9A42E8D3002318460DB05DF8A7
:1008E00004FB00BF18060020ECF5020078F80200B7
:1008F000DCF5020014F50200000000206400002076
:10090000024A034BD31ADB0818467047DCF5020095
:1009100014F5020000B587B001900B468DF8033046
:100920009DF80330002B1FD0FFF7EAFF049000234F
:10093000059313E0059B9B000E4A13440393039B0E
:100940001B881A46019B1B689A4204D1019B059A99
:100950001A60002309E0059B01330593059A049B67
:100960009A42E7D3052300E00023184607B05DF85C
:1009700004FB00BF0000002000B585B001900B46CD
:100980008DF803309DF8032001AB11461846FFF7A0
:10099000C1FF0346002B07D1019BDB00054A13442E
:1009A0000393039B1B6800E00023184605B05DF825
:1009B00004FB00BF14F5020084B001900B468DF8D3
:1009C0000330019BDB00174A134402939DF8033068
:1009D000013B032B1CD801A252F823F0ED090000C3
:1009E000F5090000FD090000070A000002238DF848
:1009F0000F3011E004238DF80F300DE0029B1B79BE
:100A00008DF80F3008E0029B5B798DF80F3003E022
:100A100000238DF80F3000BF9DF80F30184604B04A
:100A2000704700BF14F5020086B001900023ADF8B6
:100A300016300023049316E00722049B9A40019B82
:100A40001A40049B22FA03F3ADF80E30BDF80E20D5
:100A5000BDF816309A4203D9BDF80E30ADF8163005
:100A6000049B03330493049B092BE5D9BDF816308E
:100A7000184606B07047000000B587B00390029199
:100A800013468DF80730029B9B001C4A13440593C4
:100A9000029B9B001A4A13440493049B1968039A0F
:100AA00013465B001344072202FA03F3DB4301EA17
:100AB0000302049B1A60049B19689DF80700039ABF
:100AC00013465B0013449840039A13465B0013449B
:100AD000072202FA03F3034041EA0302049B1A606F
:100AE000049B1B681846FFF79FFF03461A46059BA9
:100AF0005A8000BF07B05DF804FB00BF0000002073
:100B00006400002084B00190019BDB00034A134481
:100B10000393039BDB79184604B0704714F5020079
:100B200084B00190009100238DF80F30019B1B7859
:100B300003F00403DBB2002B24D0019B1B78C3F32A
:100B40000103DBB2012B02D0022B0CD017E0009B7B
:100B50001B68019A1288C2F38312D2B213449A1C02
:100B6000009B1A600BE0009B1B68019A5288C2F33D
:100B7000891292B213449A1C009B1A6000BF012391
:100B80008DF80F309DF80F30184604B07047000004
:100B900000B58BB00023ADF826303E4803F0F6FEDA
:100BA0003D4803F0F3FE3D4B5B6804933B4B9B6871
:100BB0000693049A069B134002339B00374A134462
:100BC0000433089304AB19460898FFF7A9FF0346BE
:100BD000002B09D0049A069B134002339B002F4A36
:100BE000134404330893EDE700BF0023079311E09B
:100BF000049B5A1C0492069A1340079A920001A97A
:100C00000A44264902339B000B445B681360079B30
:100C100001330793079B012BEAD99DF80430C3F3F6
:100C20000103DBB2012B10D0022B1CD1BDF80A301E
:100C3000ADF82630BDF80630C3F389139BB20333F9
:100C40009A08049B1344049313E0BDF80A30ADF8EE
:100C50002630BDF80430C3F38313DBB21A46049B7D
:100C60001344049305E00E494FF4BF7003F0C2FC37
:100C700000BF094803F096FE0590059B002B02D0AB
:100C8000049B064A5360BDF8263018460BB05DF849
:100C900004FB00BF300A00202C0A002018060020A8
:100CA00004F8020000B585B00021074803F0BBFD41
:100CB0000390039B0293029B83F310030193019B18
:100CC000184605B05DF804FB340A002000B589B071
:100CD0000390029101920093039B1B0C0793FFF773
:100CE000E1FF0690FFF70CFE0246079B934204D3F8
:100CF000214940F2A31003F07DFC069B1904009BE0
:100D00005A1C0A9B1340079A0A431C4902339B0052
:100D10000B445A60009A0A9B134002339B00174A07
:100D2000134404330593039B03F00703D9B2059AD8
:100D3000137861F3C5031370019B03F00F03D9B25D
:100D4000059A138861F389131380029BC3F315017D
:100D5000059A136861F39F231360059A13780121A4
:100D600061F301031370059A13786FF38203137014
:100D700000BF09B05DF804FB04F80200180600206B
:100D800000B58BB00390029113468DF80730039B9A
:100D90000233089301238DF81F30002003F010F870
:100DA0003E4B1A68029B1A603C4B9A683B4B596851
:100DB0003A4B1B68CB1A13440133099314E0012109
:100DC000374803F0A7FDFFF7E3FE05900599344887
:100DD00003F0A0FD314B9A68304B59682F4B1B68CC
:100DE000CB1A134401330993089A099B9A42E6D817
:100DF0009DF81F30002B48D0002304939DF8073046
:100E0000002B17D09DF81030012262F301038DF8FA
:100E100010309DF8103043F004038DF81030039B20
:100E200003F00F03DAB2BDF8103062F38913ADF8A6
:100E3000103016E09DF81030022262F301038DF8A5
:100E400010309DF8103043F004038DF81030039BF0
:100E5000C3F309039AB2BDF8123062F38F13ADF8F1
:100E600012300E4B1A680D4B9B68134002339B00E7
:100E70000A4A134404330693049A069B1A60074BEC
:100E80001A68089B1344054A1360002002F0ACFF67
:100E90009DF81F3018460BB05DF804FB18060020C3
:100EA000340A002000B58BB00590049103920293A0
:100EB0001F4B9B68079306AB012219460298FFF768
:100EC0005FFF0346002B24D0069B023309930023C7
:100ED000089311E0089B9B00039A1A44099B591C34
:100EE000099107990B401268114902339B000B448A
:100EF0005A60089B01330893089A029B9A42E9D3EF
:100F0000069A079B00931346029A04990598FFF7E7
:100F1000DDFE074B93F82034002B05D000BF00F016
:100F20001BF90346002BFAD100BF0BB05DF804FBA0
:100F30001806002000B583B0019000910023002224
:100F400000990198FFF7AEFF00BF03B05DF804FB06
:100F500000B587B0039002910192019B059305AA09
:100F6000012302990398FFF79DFF00BF07B05DF8CA
:100F700004FB00B587B00390029101920093019B9E
:100F80000493009B059304AA022302990398FFF798
:100F900089FF00BF07B05DF804FB00B589B003907E
:100FA000029101920093019B0593009B06930A9B7B
:100FB000079305AA032302990398FFF773FF00BF65
:100FC00009B05DF804FB00B589B00390029101926D
:100FD0000093019B0493009B05930A9B06930B9B34
:100FE000079304AA042302990398FFF75BFF00BF4D
:100FF00009B05DF804FB000000B58DB003900291CC
:101000001346ADF806304B4B9B680B93BDF806308A
:1010100003339B0805A900221846FFF7B1FE0346DB
:10102000002B78D0059B0A93059B02330593414B17
:101030009A6805990B9B0B40D31A01339B000993C7
:10104000BDF80630099A9A420ED3059A0B9B1340BD
:1010500002339B00374A13440433BDF8062002993B
:1010600018460BF0D6FE17E0059A0B9B134002338F
:101070009B00304A13440433099A029918460BF036
:10108000C8FE029A099BD118BDF80620099BD31A05
:101090001A4629480BF0BDFE039B1B0C0893FFF773
:1010A00001FE0790079B19040A9B5A1C0B9B1340D7
:1010B000089A0A431F4902339B000B445A600A9A5C
:1010C0000B9B134002339B001A4A134404330693CC
:1010D000039B03F00703D9B2069A137861F3C503A3
:1010E0001370069A13886FF38F131380BDF80630C0
:1010F000C3F3090399B2069A538861F38F1353809F
:10110000069A1378022161F301031370069A13788B
:101110006FF382031370074B93F82034002B05D034
:1011200000BF00F019F80346002BFAD100BF0DB044
:101130005DF804FB1806002024060020054B5A68C1
:10114000044B1B689A420CBF01230023DBB21846F4
:10115000704700BF1806002000B59BB0FFF7EEFFF8
:101160000346002B01D00023E5E19B4B0022C3F88E
:101170001824BFF34F8F00BF974B5B680493964BC7
:101180009B681193049A119B134002339B00924A6F
:101190001344043319930023189300231793002357
:1011A000169304AB19461998FFF7BAFC0346002BB7
:1011B00019D0894BD3F81834002B14D1864B1A68F8
:1011C000049B9A4205D8844B1B68834A53600023D2
:1011D000B1E1049A119B134002339B007E4A1344F1
:1011E00004331993DDE70023159311E0049B5A1C87
:1011F0000492119A1340159A920001A90A44764963
:1012000002339B000B445B681360159B01331593FD
:10121000159B012BEAD99DF8043003F00303DBB2E0
:10122000022B40F09C80BDF80630C3F389139BB2BB
:101230000F93BDF80630C3F389139BB2502B28BF20
:1012400050239BB20E930E9BC3F309039AB2BDF8D1
:10125000063062F38F13ADF806300E9B08330D9302
:101260009DF80430C3F3C203DBB216930D995B48BB
:1012700005F093F81890189B002B00F0D180189877
:1012800005F01CF901A9179B0822189805F0D2F95E
:10129000179B08331793049BDA43119B13400133C8
:1012A0009B000C930E9A0C9B9A4242D90C9B002BEC
:1012B00008D0049A119B134002339B00464A134402
:1012C000043300E0464B0A930C9B002B02D00C9B8E
:1012D000DBB201E00E9BDBB28DF827300C9B002BBC
:1012E00001D03F4B00E0002308930C9B002B06D05D
:1012F0000E9BDAB20C9BDBB2D31ADBB200E0002308
:101300008DF81F309DF82720179B0A99189805F033
:1013100091F99DF82730179A13441793089B002BD7
:1013200016D09DF81F20179B0899189805F082F990
:101330000EE0049A119B134002339B00264A13448B
:1013400004330B93179B0E9A0B99189805F072F9BA
:101350000F9B03339A08049B1344049360E09DF8A9
:10136000043003F00303DBB2012B59D1BDF8043084
:10137000C3F38313DBB2062B28BF0623DAB2BDF812
:10138000043062F38913ADF80430BDF80430C3F3C0
:101390008313DBB2023310939DF80430C3F3C2030E
:1013A000DBB21693109B9B0019460C4804F0F5FF26
:1013B0001890189B002B33D0189805F07FF801A9DE
:1013C000179B0822189805F035F9179B08331793D7
:1013D000002315931BE000BF18060020ECF5020067
:1013E00024060020049B5A1C0492119A13400233D5
:1013F0009B00534A1344191D179B0422189805F0AB
:1014000019F9179B04331793159B01331593BDF8F6
:101410000430C3F38313DBB21A46159B9342E1D326
:10142000189B002B63D0464BD3F810341493444BD5
:10143000D3F81834002B45D0189805F04EF874E016
:1014400000238DF84F301498FFF7BFF90346002BA7
:101450002CD01498FFF7B1F903468DF81E30BDF873
:1014600008309B00374A13440693069B19689DF881
:101470001E2013465B001344072202FA03F31940AF
:101480009DF81E2013465B00134421FA03F30593D5
:10149000169B052B01D0169B00E003231693059A9B
:1014A000169B9A4202D301238DF84F309DF84F309E
:1014B000002B03D018991498FFF758F9149BDB6898
:1014C0001B681493149B002BBAD1189805F005F8EB
:1014D000002002F075FC1A4BD3F81834002B02D10F
:1014E000049B174A5360002002F07EFC1DE0144B61
:1014F000D3F81034129306E01298FFF745F9129BC7
:10150000DB681B681293129B002BF5D10E4B5B8896
:10151000012B0AD90D4A0E4BD31ADB081B0443F0EA
:1015200002030C491846FFF705FDFFF707FE0346C7
:1015300083F00103DBB218461BB05DF804FB00BF6B
:1015400018060020640000201C0000204CF502005A
:1015500014F5020064F8020000B585B0002303937F
:1015600023E0164BD3F81034029301238DF8073093
:101570000FE00298FFF721F903461A46039B9342B6
:1015800003D100238DF8073006E0029BDB681B685F
:101590000293029B002BECD19DF80730002B01D069
:1015A000039B07E0039B01330393039B092BD8DDC7
:1015B0004FF0FF33184605B05DF804FB1806002015
:1015C00000B587B001900B468DF80330FFF7C4FFDC
:1015D0000490049BB3F1FF3F01D1049B48E0049BBE
:1015E000DBB219460198FFF7DBF8234BD3F8103430
:1015F000002B08D1204A019BC2F81034019BDB6804
:1016000000221A600DE01C4BD3F81034DA68019BFD
:10161000DB6812681A60184BD3F81034DB68019A43
:101620001A60002305931CE00598FFF76BFA034648
:101630008DF80F309DF803209DF80F30934228BF9E
:1016400013468DF80E300198FFF7B7F80346184699
:101650009DF80E301A460599FFF70EFA059B0133E7
:101660000593FFF74DF90246059B9342DCD3049B9B
:10167000184607B05DF804FB1806002082B0019000
:10168000009100BF02B0704710B584B00390029182
:10169000039BDB88002B0AD0039BDB881A461F4B79
:1016A000009313461E4A1F49029803F0B5FA039BA4
:1016B0001B7A052B2ED0039B5B7A002B12D0039B49
:1016C0009B881A46039B1B7A19461046FFF774F94C
:1016D00003461A46144B53F822301A46134902980F
:1016E00003F09AFA039B1B6819460298FFF7C6FF9E
:1016F000039B1B7A1A460E4B53F82240039B9B8890
:1017000000211846FFF738F9034622460949029896
:1017100003F082FA00BF04B010BD00BFA4F80200BD
:10172000B4F80200ECF802000C01002004F90200F9
:10173000F800002008F9020000B585B0039002917E
:1017400013468DF80730039B1B7A052B0FD0039BA4
:101750005B7A002B06D00D4B1B681A460C49029889
:1017600003F05AFA0B49029803F056FA07E09DF885
:101770000730002B03D00749029803F04DFA029876
:1017800003F028FA00BF05B05DF804FB0C0100204F
:1017900004F9020014F9020030B58BB007900691ED
:1017A000059204930E9B1B7B8DF827300E9B002225
:1017B0001A730E990498FFF767FF059B062B7FD8D5
:1017C00001A252F823F000BFE5170000EF17000058
:1017D000FF1700001318000031180000591800000E
:1017E0008918000007990E9803F016FA69E0069B25
:1017F0001B681A4607990E9803F00EFA61E0069BE3
:101800001A68069B04331B6807990E9803F004FAC4
:1018100057E0069B1A68069B04331968069B083339
:101820001B6800930B4607990E9803F0F5F948E002
:10183000069B1968069B04331868069B08331B68CF
:10184000069A0C3212680192009303460A460799E1
:101850000E9803F0E1F934E0069B1868069B043308
:101860001C68069B08331B68069A0C32126806999E
:1018700010310968029101920093234602460799AC
:101880000E9803F0C9F91CE0069B1C68069B043304
:101890001D68069B08331B68069A0C32126806996D
:1018A0001031096806981430006803900291019283
:1018B00000932B46224607990E9803F0ADF900E0FD
:1018C00000BF00220E990498FFF736FF0E9B9DF88B
:1018D00027201A7300BF0BB030BD00BF00B587B022
:1018E0000390029101920093029B082B60D8009B09
:1018F0001B7B8DF81330009B00221A73009901980E
:10190000FFF7C2FE0023059314E0059A029B9A425A
:1019100009D2039A059B13441B781A46264900985E
:1019200003F07AF903E02549009803F075F9059B67
:1019300001330593059B072BE7D92149009803F054
:101940006BF90023059326E0059A029B9A421BD26D
:10195000039A059B13441B788DF812309DF81230C2
:101960007E2B0AD89DF8123018460BF0C9F90346B1
:10197000002B02D09DF8123000E02E231A461149A8
:10198000009803F049F903E00F49009803F044F987
:10199000059B01330593059B072BD5D9012200999F
:1019A0000198FFF7C9FE009B9DF813201A7300E011
:1019B00000BF07B05DF804FB18F9020020F902002F
:1019C00024F9020028F902002CF9020000B583B0C6
:1019D0000190019B1B682F2B04D90B4940F2CD10BD
:1019E00002F008FE019B1B681F2B02D84FF0A0439A
:1019F00006E0019B1B6803F01F02019B1A60034B6A
:101A0000184603B05DF804FB30F9020000030050F3
:101A100000B585B00190084611461A4603468DF878
:101A200003300B468DF8023013468DF8013001ABC0
:101A30001846FFF7CBFF03909DF803209DF8023076
:101A40005B001A439DF801309B001A439DF8183043
:101A50001B0242EA03019DF81C301B04019A194342
:101A6000039B02F5E07243F8221000BF05B05DF859
:101A700004FB00B585B0039000230193002300937D
:101A80000023012201210398FFF7C2FF00BF05B028
:101A90005DF804FB00B585B003900B468DF80B3064
:101AA0009DF80B30002201920022009200220021BA
:101AB0000398FFF7ADFF00BF05B05DF804FB00B56C
:101AC00085B0019001AB1846FFF780FF0390019BA2
:101AD000012202FA03F31946039800F086F800BFCA
:101AE00005B05DF804FB00B585B0019001AB184668
:101AF000FFF76CFF0390019B012202FA03F31946E2
:101B0000039800F07CF800BF05B05DF804FB00B559
:101B100085B0019001AB1846FFF758FF0390039B77
:101B2000D3F804350293029BDA43019B012101FAA9
:101B300003F31A40039BC3F80825019B01229A4036
:101B4000029B1A40039BC3F80C2500BF05B05DF84B
:101B500004FB00B583B001900091009B002B03D1E2
:101B60000198FFF7C0FF02E00198FFF7A8FF00BF50
:101B700003B05DF804FB00B585B0019001AB1846D9
:101B8000FFF724FF0390039800F01FF80246019B23
:101B900022FA03F303F00103184605B05DF804FBD5
:101BA00000B585B0019001AB1846FFF70FFF039019
:101BB000039800F012F80246019B22FA03F303F0A7
:101BC0000103184605B05DF804FB82B00190019B4B
:101BD000D3F81035184602B0704782B00190019BCF
:101BE000D3F80435184602B0704782B001900091D6
:101BF000019B009AC3F8082500BF02B0704782B06D
:101C000001900091019B009AC3F80C2500BF02B01F
:101C10007047000000B585B00190019B022B03D9ED
:101C200011493A2002F0E6FC104A019B13441B784C
:101C30001846FFF7B5FF0346002B14BF012300230E
:101C40008DF80F309DF80F30002B14BF01230023B7
:101C5000DBB283F00103DBB203F00103DBB2184611
:101C600005B05DF804FB00BF50F902009CF90200CA
:101C700000B583B00190019B022B03D90749412095
:101C800002F0B8FC064A019B13441B780021184659
:101C9000FFF75FFF00BF03B05DF804FB50F90200DF
:101CA0009CF9020000B583B00190019B022B03D97F
:101CB0000749472002F09EFC064A019B13441B780B
:101CC00001211846FFF745FF00BF03B05DF804FB94
:101CD00050F902009CF9020000B583B00023019383
:101CE00005E00198FFF7DEFF019B01330193019BA3
:101CF000022BF6D900BF00BF03B05DF804FB00B5AE
:101D000083B00023019305E00198FFF7B1FF019B29
:101D100001330193019B022BF6D900BF00BF03B032
:101D20005DF804FB00B583B00190019B022B03D941
:101D300007495F2002F05EFC064A019B13441B78B2
:101D40001846FFF7E4FE00BF03B05DF804FB00BFD8
:101D500050F902009CF9020000B583B00023019302
:101D600009E0094A019B13441B781846FFF781FEDE
:101D7000019B01330193019B022BF2D9FFF7ACFFCA
:101D800000BF03B05DF804FB9CF9020000B585B00C
:101D90000190019B002B03D00F49AC2002F02AFCDC
:101DA00002231846FFF7E7FE0346002B14BF01236A
:101DB00000238DF80F309DF80F30002B14BF012346
:101DC0000023DBB283F00103DBB203F00103DBB2DB
:101DD000184605B05DF804FB50F9020000B583B069
:101DE0000023019307E0022303211846FFF752FE68
:101DF000019B01330193019B002BF4D000BF00BF76
:101E000003B05DF804FB84B001904FF0FF33029300
:101E1000002303930AE002231A46019B934202D156
:101E2000039B029305E0039B01330393039B002B69
:101E3000F1D0029B184604B0704700B583B0019002
:101E4000019B03F00103002B01D0FFF785FF019BED
:101E500003F00203002B01D0FFF7C0FF00BF03B067
:101E60005DF804FB00B585B00190019800F00EF814
:101E70000390039B002B01D0039B00E0024B18460C
:101E800005B05DF804FB00BFA0F9020086B0019028
:101E9000164B0593164B04931FE0049A059BD31A27
:101EA000DB10DA0F13445B10DB00059A1344039335
:101EB000039B1B680293029A019B9A4202DD039BDB
:101EC00004930AE0029A019B9A4203DA039B0833C7
:101ED000059302E0039B5B6804E0059A049B9A4229
:101EE000DBD30023184606B0704700BF00FD020098
:101EF00078FE020000B583B00190019B1B781A4662
:101F00000C4B9B5C002B05D0019B0433184608F05A
:101F1000FBFB0BE0019B1B781A46064B9B5C002BDE
:101F200004D1019B0C33184607F0B0FD00BF03B08D
:101F30005DF804FB080D002008B500F091FD00F0ED
:101F400081F900F02FF800F071F800BF08BD000023
:101F500000B583B004F004FC0190019B002B03D07A
:101F60000349AA2002F046FB00BF03B05DF804FB62
:101F700078FE020008B500F0D1F9FCE762B600BFB8
:101F800000BF704772B600BF00BF704708B500F0D1
:101F900029F80346184608BD08B500F09DFD034624
:101FA000184608BD00B583B0002005F0C1F80190C7
:101FB000019B002B0AD0019B852B07D0019B002B96
:101FC00004D007494FF48A7002F014FBFFF7DEFFDC
:101FD000034618460AF0FAFE00BF03B05DF804FBA2
:101FE00078FE020000B585B000230293002303931E
:101FF00000238DF8073004E00DF10703184605F0C3
:10200000E5F89DF80730032BF6D902AB04211846FA
:1020100005F0F8F80390039B002B01D0002300E0AB
:10202000029B184605B05DF804FB000000B583B0C4
:1020300005F0D6F903460193019B012B04D0044916
:1020400040F2331002F0D6FA00BF03B05DF804FB93
:1020500078FE020000B587B0039002910192039BC5
:10206000002B05D14FF49E7143F65E300FF0F4FD66
:10207000029B002B05D140F23D1143F65E300FF07C
:10208000EBFD019B002B05D14FF49F7143F65E30B1
:102090000FF0E2FD019B002B17D0029B002B14D008
:1020A000039B002B11D0039805F0FCF902990198CD
:1020B00005F0B4F903460593059B012B06D00549AD
:1020C0004FF4A37002F096FA00E000BF07B05DF88D
:1020D00004FB00BF78FE020082B0EFF3058301939A
:1020E000019B002B14BF01230023DBB2184602B072
:1020F00070470000000000002DE9F04385B001901A
:102100004FF080531B6E18464FF000014FF0000255
:102110004FF0000303000022CDE902234FF080536B
:102120005B6E18464FF00001DDE9022340EA020829
:1021300041EA0309CDE90289DDE902234FF0FF30CE
:102140004FF0FF0102EA000603EA0107CDE902674A
:10215000DDE902230AA1D1E9000142EA000443EAD1
:102160000105CDE9024502AB0822194601980AF0A3
:1021700050FE00BF05B0BDE8F08300BFAFF30080A4
:10218000000000000036CEF4014B1846704700BF37
:102190003C0A002008B504F0F9FA00BF08BD00BFF2
:1021A000704708B5FFF7F6FF00BF08BD00B585B062
:1021B0000390029101924FF4CE7143F65E300FF01E
:1021C0004BFD00BF05B05DF804FB000008B504F04E
:1021D000E1FF0248FFF78EFE00BF08BDDC000020D3
:1021E00000B583B0002004F0A3FF0190019B002BF9
:1021F00004D0054940F2C11002F0FCF9FEF720FAC4
:1022000000BF03B05DF804FB78FE020000B585B0A6
:10221000019000230393019B002B01D1019B0CE053
:10222000FFF7D4FF019800F095FCFFF7B3FF00F033
:10223000BDFC0390FFF7D4FF039B184605B05DF883
:1022400004FB000008B50FF069FF0346002B09D11D
:10225000054B1B78002B03D1044B1B78002B01D0BE
:102260000FF062FF00BF08BDFD0300200004002046
:1022700000B585B0019000910FF050FF0346002B90
:102280003DD038E0204B1B68C3F108030393039A49
:10229000009B9A4201DD009B03931B4B1B681B4A6A
:1022A0001344039A019918460AF0B3FD164B1A68B5
:1022B000039B1344144A1360039B019A1344019334
:1022C000009A039BD31A00930F4B1B68082B12D163
:1022D0000F4B5B88022B0BD90E4A0F4BD31ADB082E
:1022E0001B0443F00303082208491846FEF784FE46
:1022F000054B00221A60009B002BC3D100E000BFF9
:1023000005B05DF804FB00BF880A0020800A0020A9
:1023100060000020D4F5020014F5020008B50E4B51
:102320001B68002B14D00D4B5B88022B0DD90C4A77
:102330000C4BD31ADB081B0443F00303064A126854
:1023400092B209491846FEF757FE034B00221A6065
:10235000FEF702FF00BF08BD880A002060000020D1
:10236000D4F5020014F50200800A002000B583B005
:102370000190019B5B68002B04D06E214FF66740F3
:102380000FF06AFC019B1B78022B02D80FF0DAFEDB
:1023900005E07A214FF667400FF05EFC00BF00BFFA
:1023A00003B05DF804FB84B04FF010235B69039326
:1023B0004FF080531B6902934FF080535B69019388
:1023C000039BB3F1FF3F04D1019B029A02FB03F38D
:1023D00000E0039B184604B0704708B5FFF7E3FF21
:1023E0000346A3F51043184608BD000000B585B0AC
:1023F0000190FFF7D8FF03460D4A1361FFF7EDFF89
:1024000003460B4AD3600B4B0022C3F8082100227D
:102410000949074803F0ACFC0390039B002B03D051
:102420000649B72002F0E6F800BF05B05DF804FBEE
:10243000C80000208C0A002050050300D4FE0200D2
:102440004FF480431846704702231846704700B582
:1024500085B003900B460192ADF80A30BDF80A3002
:10246000002B02D16FF00A030DE0019B002B02D17B
:102470006FF00B0307E0039BBDF80A201946019893
:102480000AF0C7FC0023184605B05DF804FB00B550
:1024900087B0029101921A4603468DF80F30134619
:1024A000ADF80C30002305939DF80F30012B02D9B5
:1024B0006FF0380328E0BDF80C20029B1344B3F5FD
:1024C000804F02D36FF016031EE0019B002B02D158
:1024D0006FF00B0318E0BDF80C30002B02D16FF049
:1024E0000C0311E0FFF779FF02469DF80F309B03C4
:1024F0001344029A13440593059BBDF80C2019461A
:1025000001980AF086FC0023184607B05DF804FB2A
:1025100000B589B0049103921A4603468DF817302E
:102520001346ADF8143000230793002306939DF85B
:102530001730012B02D96FF038035CE0BDF814208E
:10254000049B1344B3F5804F02D36FF0160352E09F
:10255000039B002B02D16FF00B034CE0BDF814304D
:102560009B089BB2002B02D16FF00C0343E0FFF7F6
:1025700034FF02469DF817309B031344049A13441A
:102580000793BDF81430032B06D9BDF8143003F0BF
:1025900003039BB2002B05D04FF4A6714FF66740A2
:1025A0000FF05AFB00BF0FF0D5FD0346002BFAD108
:1025B0000FF0C0FDBDF8143000220092039A079975
:1025C0000F4803F027FC03460693069B002B05D01B
:1025D00040F25B114FF667400FF03EFB00BF0FF07B
:1025E000B9FD0346002BFAD1069B002B01D1002335
:1025F00001E04FF0FF33184609B05DF804FB00BF5F
:10260000C800002000B587B0029101921A46034627
:102610008DF80F301346ADF80C309DF80F3002994D
:10262000184600F09BF80346002B0CD100F07AF816
:1026300009E000F077F8029A059B13440293019A8F
:10264000059B13440193BDF80C309DF80F00019ACF
:10265000029900F0ADF80590059B9BB2BDF80C20E7
:10266000D31AADF80C30BDF80C30002BE1D10023AB
:10267000184607B05DF804FB00B587B003468DF837
:10268000073000230593002303939DF80730012BA7
:1026900002D96FF038033FE0FFF79FFE02469DF836
:1026A00007309B0313440593002304932BE000BFE2
:1026B0000FF050FD0346002BFAD10FF03BFD002335
:1026C00001220599164803F0A9FC03460393039BD6
:1026D000002B05D040F2A5114FF667400FF0BCFA71
:1026E000039B002B02D04FF0FF3315E000BF0FF02B
:1026F00031FD0346002BFAD1059B03F5805305936A
:10270000049B01330493049B032BD0D99DF807301D
:1027100018460FF027FD0023184607B05DF804FBAC
:10272000C800002008B50C4BD3F80831002B10D09E
:10273000094B93F80001084BD3F80411064BD3F86A
:1027400008319BB2044AFFF7E3FE034B0022C3F8B3
:10275000082100BF08BD00BF8C0A002082B00346DC
:1027600000918DF80730114BD3F80831002B16D0AB
:102770000E4B93F800319DF807209A4211D10B4B74
:10278000D3F80421094BD3F808311344009A9A4234
:1027900007D1064BD3F80831B3F5807F01D0012370
:1027A00000E00023DBB2184602B070478C0A00201C
:1027B00000B587B0029101921A4603468DF80F309A
:1027C0001346ADF80C301D4BD3F80831002B08D15F
:1027D0001A4A9DF80F3082F80031184A029BC2F85D
:1027E0000431164BD3F80831C3F580730593BDF857
:1027F0000C30059A9A4202D2059BADF80C30BDF818
:102800000C30002B13D00D4BD3F808310B4A134476
:10281000BDF80C20019918460AF0FBFA074BD3F8D3
:102820000821BDF80C301344044AC2F80831BDF841
:102830000C30184607B05DF804FB00BF8C0A00207E
:1028400000B585B0104B0293FFF7C7FD034603F5B3
:10285000004301AA04211846FFF7F9FD0390039BEA
:10286000002B0CD102A901AB042218460AF04DFA44
:102870000346002B0CBF01230023DBB200E0002342
:10288000184605B05DF804FBE737DDF600B585B006
:1028900001900B46ADF80230FFF79FFD034603F5AC
:1028A00000430433BDF80210019A1846FFF7CFFD2C
:1028B0000390039B184605B05DF804FB00B585B096
:1028C00001900B46ADF802301346ADF80030FFF72B
:1028D00084FD0246BDF80030134403F50043043381
:1028E000BDF80210019A1846FFF7B1FD0390039B53
:1028F000184605B05DF804FB014B1846704700BF51
:1029000028FF020084B00190074A02AB92E803005E
:1029100083E80300019B1A4602AB93E8030082E8B8
:102920000300019804B0704730FF020082B00190AC
:10293000019BD3F81035DBB2184602B07047000097
:1029400070B586B001900B468DF803309DF80330CA
:102950000593019B18464FF000014FF000024FF025
:1029600000030B0143EA107302010599C1F120062F
:10297000A1F1200022FA01F403FA06F6344323FA07
:1029800000F0044323FA01F5CDE90245DDE9022315
:10299000012B08BF002A04D3044940F2B32001F000
:1029A00029FE029B184606B070BD00BF38FF02002A
:1029B00000B583B001900091019B1B681846FFF79A
:1029C000B5FF034619460098FFF7BAFF03461846BD
:1029D00003B05DF804FB000008B5FFF7D3FA094B1C
:1029E0001B78DBB2012B08D1FFF786FF03461846A0
:1029F00006F0EEFA034B00221A70FFF7BFFA00BF91
:102A000008BD00BFAC0B002008B5FFF7BBFA0F4BA9
:102A10001B78DBB2002B02D100F022F811E0FFF7A7
:102A20006BFF0346184606F05FFB034683F0010385
:102A3000DBB2002B05D0FFF75FFF0346184606F018
:102A4000F7FAFFF79BFA00BF08BD00BFAC0B0020F0
:102A5000024B1B78DBB21846704700BFAC0B00205E
:102A600000B589B04FF47053079303AB1846FFF7D6
:102A700049FFFFF741FF03AB144A194606F0ACF9D2
:102A80000690069B002B03D011496B2001F0B2FD8C
:102A9000FFF732FF034607991846FFF789FF0590B5
:102AA000FFF72AFF012300930223059A012106F074
:102AB000BEFBFFF721FF0346184606F0B9FA054BA7
:102AC00001221A7000BF09B05DF804FB232B00003F
:102AD00058FF0200AC0B002000B583B0FFF752FA9C
:102AE000FFF7B6FF0346012B08D1FFF705FF0346AA
:102AF0000221184606F024FB019001E00023019317
:102B000013F0CEF8024613461B019B1A9B0200935A
:102B1000FFF734FA009A019B1344184603B05DF89E
:102B200004FB00B583B003460091ADF80630BDF854
:102B30000630B3F5A27F02D10FF016FB00E000BF14
:102B400000BF03B05DF804FB82B0019000BF02B08B
:102B50007047000000B583B001902CF0A3FB034642
:102B60000F4A1360019B002B15D00E4B0E4A9A6042
:102B70000C4B0022DA600A4B1B680A4A1360019B67
:102B80004FF47A7202FB03F3064A536000210548B2
:102B90002CF094FB00E000BF03B05DF804FB00BF25
:102BA000B00B0020980B0020492B000000B583B02B
:102BB000002301932CF076FB0246074B1B68D31AC7
:102BC0000193019B03F2E733044AA2FB03239B0911
:102BD000184603B05DF804FBB00B0020D34D621023
:102BE00030B58BB028F094FA114B6C461D460FCDD2
:102BF0000FC40FCD0FC42B6823606B4618462AF014
:102C0000E9FF0990099B002B04D0D52146F67B6093
:102C10000FF022F8FFF7C3FA012028F0EBFA0220A8
:102C200000F0BCF8012028F0E7FA00BF0BB030BD7F
:102C3000CCFF020000B583B00190019828F064FA3F
:102C400000BF03B05DF804FB00B583B00346ADF8E8
:102C500006300DF10603184628F054FA00BF03B001
:102C60005DF804FB00B583B00346ADF806300DF106
:102C70000603184628F04AFA00BF03B05DF804FBCB
:102C800000B583B003468DF8073000BF9DF80720DC
:102C900013461B019B1A9B02184628F088FA03462C
:102CA00083F00103DBB2002BF0D100BF00BF03B003
:102CB0005DF804FB00B583B003468DF807309DF83E
:102CC0000730184628F008FA00BF03B05DF804FB8F
:102CD00000B583B003468DF807309DF907301846DC
:102CE00028F009FA00BF03B05DF804FB00B583B01B
:102CF000019028F002FA03461A46019B1A7000BFA1
:102D000003B05DF804FB00B583B003468DF80730CF
:102D10009DF80730002B14BF01230023DBB21846B7
:102D200028F068FA00BF03B05DF804FB00B583B07B
:102D300003468DF807309DF80730002B14BF0123A0
:102D40000023DBB2184628F053FA00BF03B05DF849
:102D500004FB00B583B00190019B002B02D128F049
:102D60000CFA01E028F011FA00BF03B05DF804FB93
:102D700008B528F0F3F90346032B01D1012300E045
:102D80000023184608BD08B528F0E8F90346022BD1
:102D900001D1002300E00123184608BD00B585B02D
:102DA00003468DF8073000238DF80F3028F0D6F950
:102DB00003468DF80E309DF80E209DF807309A429C
:102DC0002BD09DF80730023B042B26D801A252F8E5
:102DD00023F000BFE92D0000FD2D00001B2E000098
:102DE0001B2E00001B2E00009DF80E30032B11D16E
:102DF00028F0C0F903468DF80F300BE09DF80E3037
:102E0000022B03D09DF80E30042B05D128F0BDF91C
:102E100000BF01E000BF00E000BF9DF80F30184682
:102E200005B05DF804FB00BF00B587B002910192C8
:102E30001A4603468DF80F3013468DF80E300023E6
:102E40008DF817309DF80F30012B02D0042B07D0DE
:102E50000EE001238DF81730019828F0CFF90EE02D
:102E60000021019828F097F903468DF8173006E005
:102E70004FF4DB7146F67B600EF0EEFE00BF9DF86E
:102E80001730184607B05DF804FB00B585B0039015
:102E9000029111461A460B468DF8073013468DF8FD
:102EA0000630FFF771F903461A6A01321A62029876
:102EB0000AF074FA00BF05B05DF804FB00B583B0FA
:102EC0000190019828F078F900BF03B05DF804FB89
:102ED00000B583B001900B468DF803309DF80330A8
:102EE000072B4BD801A252F823F000BF0D2F000092
:102EF0001B2F0000292F0000372F0000452F000056
:102F0000532F0000612F00006F2F0000FFF73CF9E6
:102F100003465A6A01325A6230E0FFF735F9034638
:102F20009A6A01329A6229E0FFF72EF90346DA6ABB
:102F30000132DA6222E0FFF727F903461A6B013209
:102F40001A631BE0FFF720F903465A6B01325A63FC
:102F500014E0FFF719F903469A6B01329A630DE00A
:102F6000FFF712F90346DA6B0132DA6306E0FFF786
:102F70000BF903461A6C01321A6400BF9DF8033046
:102F8000013B062B18D801A252F823F0A92F00000C
:102F9000B12F0000A92F0000A92F0000B12F0000C1
:102FA000A92F0000A92F000001200AF031FA03E048
:102FB00004200AF02DFA00BF00BF03B05DF804FB47
:102FC00000B585B0039001930B468DF80B30134686
:102FD0008DF80A30FFF7D8F803461A6801321A60F4
:102FE0009DF80A209DF90B10019B03980AF034FA12
:102FF00000BF05B05DF804FB00B583B003468DF853
:1030000007309DF80730062B41D801A252F823F073
:103010002D3000003B3000004930000057300000E8
:10302000653000007330000081300000FFF7ACF81D
:1030300003465A6801325A6029E0FFF7A5F80346B3
:103040009A6801329A6022E0FFF79EF80346DA6838
:103050000132DA601BE0FFF797F803461A69013284
:103060001A6114E0FFF790F803465A6901325A6179
:103070000DE0FFF789F803469A6901329A6106E08C
:10308000FFF782F80346DA690132DA6100BF054BC7
:1030900001221A60034B00221A6000BF03B05DF8E2
:1030A00004FB00BFE83E002084B003468DF80730E3
:1030B0009DF807305B08DBB21A460D4B9B5C8DF820
:1030C0000F309DF8073003F00103002B04D09DF86A
:1030D0000F301B09DBB204E09DF80F3003F00F0343
:1030E000DBB28DF80E309DF80E30184604B07047F4
:1030F000C80B002084B003460A468DF807301346FB
:103100008DF806309DF8073003F00103002B01D045
:103110000F2300E0F0238DF80F309DF8073003F007
:103120000103002B04D09DF806301B01DBB201E047
:103130009DF806308DF80E309DF807305B08DBB245
:103140001A46114B9A5C9DF807305B08DBB21946B2
:103150009DF80F301340DAB20B4B5A549DF80730EC
:103160005B08DBB21A46084B9A5C9DF807305B0897
:10317000DBB219469DF80E301343DAB2024B5A54B3
:1031800000BF04B0704700BFC80B002000B585B079
:1031900003468DF807300023039310E00F4B1A68A5
:1031A000039BDB0013440293029B1B789DF80720CE
:1031B0009A4201D1029B0DE0039B01330393084B1C
:1031C0001B781A46039B9342E8DB0649882001F0EE
:1031D00011FA0023184605B05DF804FBB40B00207B
:1031E000B80B00202400030000B585B003460A4652
:1031F0008DF8073013468DF806309DF807301846D5
:10320000FFF7C4FF0390039B002B0BD0039B5B686D
:10321000002B07D0039B5B689DF806109DF80720E4
:103220001046984700BF05B05DF804FB2DE9F04F4C
:1032300085B003460A468DF80F3013468DF80E30E0
:103240009DF80F301846FFF72FFF0346042B00F2BE
:10325000B48001A252F823F06D320000D332000096
:10326000EF3200001F330000353300009DF80E30B0
:10327000002B00F09F809DF80F3001211846FFF7CA
:1032800039FF002000F09CFD9DF80F104FF0010267
:103290004FF00003A1F12004C1F1200003FA01F76F
:1032A00002FA04F4274322FA00F0074302FA01F677
:1032B000444BD3E9002346EA020100913B430193CA
:1032C000404BDDE90012C3E90012002000F08CFD44
:1032D00070E09DF80E30002B01D0022200E00022A9
:1032E0009DF80F3011461846FFF704FF65E09DF882
:1032F0000E30002B0CD09DF80F3003211846FFF73D
:10330000F9FE9DF80F3001211846FFF76DFF54E0DC
:103310009DF80F3001211846FFF7ECFE4DE09DF8B7
:103320000E30002B48D19DF80F3004211846FFF7CE
:10333000E1FE41E09DF80E30002B06D09DF80F30E5
:1033400003211846FFF7D6FE37E09DF80F30002125
:103350001846FFF7CFFE9DF80F3000211846FFF703
:1033600043FF002000F02CFD9DF80F104FF00102EC
:103370004FF00003A1F12006C1F1200003FA01F58E
:1033800002FA06F6354322FA00F0054302FA01F488
:103390006FEA04086FEA05090A4BD3E9002308EA3B
:1033A000020A09EA030B074BC3E900AB002000F057
:1033B0001BFD02E000BF00E000BF00BF05B0BDE89C
:1033C000F08F00BFC00B002000B583B00648074B4C
:1033D0001B685B080022194600F06CFC019000BFDE
:1033E00003B05DF804FB00BF30010020BC0B0020DF
:1033F00000B587B001900023049328E01C4B1A68A5
:10340000049BDB0013440593059B1B78184604F0CE
:10341000B7FF03468DF80F30059B5B78012B0CBF7F
:1034200001230023DBB21A469DF80F309A420CBFED
:10343000012300238DF80E30059B1B789DF80E208C
:1034400011461846FFF7F2FE049B01330493094B23
:103450001B781A46049B9342D0DB074BD3E9002329
:10346000134301D0FFF7B0FF00BF07B05DF804FBC6
:10347000B40B0020B80B0020C00B002000B587B0B3
:1034800001900B468DF80330019BDBB21846FFF725
:103490007DFE0490049B1B78184604F071FF0346E0
:1034A0008DF81730049B5B78012B0CBF01230023A0
:1034B000DBB21A469DF817309A420CBF0123002355
:1034C0008DF80F309DF80F30002B06D0054BD3E957
:1034D0000023134301D1FFF777FF00BF07B05DF86A
:1034E00004FB00BFC00B002000B58BB003900B465F
:1034F00001928DF80B30019B092B01D8072367E05F
:1035000004F030FE034683F00103DBB2002B09D048
:1035100004F0D6FD0990099B0893089B002B01D06D
:10352000089B55E02C4A039B13602C4A9DF80B30F6
:1035300013702B4A019B136020220021294809F0B7
:1035400091FC29494FF000024FF00003C1E900232C
:1035500031E09DF80B30DB00039A134407930323FB
:103560008DF8143000238DF815309DF816306FF368
:1035700000038DF816309DF816306FF341038DF877
:1035800016309DF816306FF382038DF81630079BC6
:103590009B788DF81530079B1B78184605AB134AAE
:1035A000194604F0EBFD0990099B0693069B002B3E
:1035B00001D0069B0CE09DF80B305A1E8DF80B20B5
:1035C000002BC6D10A4A00210A4800F03FFB0346FF
:1035D00018460BB05DF804FBB40B0020B80B0020BC
:1035E000BC0B0020C80B0020C00B00207D34000065
:1035F000F13300007C00030000B583B0114B1B6861
:10360000002B04D1104940F2351000F0F3FF0023E5
:1036100001930CE00B4B1A68019BDB0013441B78F1
:103620000121184604F024FE019B01330193074B4E
:103630001B781A46019B9342ECD30023184603B033
:103640005DF804FBB40B002024000300B80B00203D
:1036500000B583B002900091019244F201007146DE
:103660006A46FEF7A3FD03B000BD00BFF0B583B00E
:10367000124800F097FF034618464FF00001104B28
:10368000D3E90023861841EB0307CDE900670D4B12
:10369000D3E90023DDE90001994208BF904207D237
:1036A000DDE9002312F1807443F10005CDE9004506
:1036B000DDE900231046194603B0F0BD5801002093
:1036C000F00B0020F80B002088B001900091019BC6
:1036D0000793009B0693079BD3E90223CDE90423BC
:1036E000069BD3E90223CDE90223DDE90423DDE9CA
:1036F0000201994208BF90422CBF01230023DBB294
:10370000184608B07047000030B585B00190019BA5
:103710005B69002B03D12C49A22000F06BFF002332
:103720008DF80F30294B1B78002B48D0019B002BC4
:1037300045D0019B93F82030DBB2002B3FD0FFF740
:1037400095FF019BD3E90223994208BF90422ED3F3
:10375000019B1B69002B03D1019B002283F82020D1
:10376000019B5B69019A926910469847019B1B690E
:10377000002B24D0019B93F82030DBB2002B1ED00D
:10378000019BD3E90201019B1B691A464FF000031C
:10379000841841EB0305019BC3E90245019B1946CF
:1037A0000B4803F061FA01238DF80F3007E0019B0D
:1037B0001946074803F058FA01238DF80F309DF899
:1037C0000F30184605B030BDA0000300EC0B002000
:1037D000F8000300F0B589B0019000910D23079324
:1037E000009B00221A70019BD3E90245FFF73EFFC0
:1037F00002460B46A61A65EB0307CDE90467DDE92F
:103800000423012A73F100031BDB049BB3F5D40FDF
:1038100005D300F0AFFA0246154B134403E0019BB9
:10382000D3E90223134603934FF41603039A0021AE
:10383000104800F0B9FD0790079B002B05D101232C
:1038400013E000210B4800F087FE079B0D2B07D1EA
:103850000198FFF759FF03461A46009B1A7003E0D0
:103860000549F52000F0C6FE0023184609B0F0BD5A
:10387000FFFF690058010020A000030000B583B0DD
:10388000044803F02BFA0190019B184603B05DF841
:1038900004FB00BFF800030000B583B0044803F048
:1038A0003FFA0190019B184603B05DF804FB00BF8E
:1038B000F800030000B583B0FFF7E0FF0190019B23
:1038C000002B03D0019B002283F82020019B002BBA
:1038D000F2D100BF00BF03B05DF804FB054BD3E994
:1038E000002312F1807043F10001024BC3E9000193
:1038F00000BF7047F00B002000B583B00190134B60
:103900001B68002B1DD0019800F04CFE0F4B1B686C
:10391000D3E90223134623F07F43194600F01EFA31
:103920000346B3F5160F04D309494FF4957000F020
:1039300061FE064B1B681846FFF7E6FE034B0022AC
:103940001A6000BF03B05DF804FB00BFE80B002065
:10395000A000030000B583B00190FFF787FE024688
:103960000B460349C1E9002300BF03B05DF804FB27
:10397000F80B002000B585B00190FFF78DFF039094
:1039800000238DF80B30039B002B49D02C4B1B6878
:10399000002B03D101238DF80B301AE0039BD3E9F0
:1039A0000201274B1B68D3E90223994208BF9042CA
:1039B0000FD201238DF80B30214B1B6893F8203078
:1039C000DBB2002B05D01E4B1B6819461D4803F0C7
:1039D0004BF99DF80B30002B2AD0FFF74FFF0390D7
:1039E0000DF10A0319460398FFF7F4FE0346002B76
:1039F00012D0134B1B68002B02D1019800F0E0FBA2
:103A00000F4A039B13609DF80A3083F00103DBB279
:103A1000002BB2D000BF0EE0094B00221A60ACE7C9
:103A2000074B1B68002B05D1019800F0DFFB01E07C
:103A300000BF00E000BF00BF05B05DF804FB00BFA1
:103A4000E80B0020F800030000B587B001902D4A74
:103A500003AB1946104600F0B9FE05904AE0059BFD
:103A60001B78022B30D0022B34DC002B02D0012B30
:103A700016D02FE0059B5B6893F82030DBB283F013
:103A80000103DBB2002B27D0059B5B68012283F882
:103A90002020059B5B6819461B4803F0E5F81BE0F6
:103AA000059B5A68194B1B689A4203D1174B002299
:103AB0001A6012E0059B5B681946134803F044F94D
:103AC00003468DF8133008E0FFF7F4FE104B012297
:103AD0001A7002E000BF00E000BF0A4A03AB1946BB
:103AE000104600F08CFE074A03AB1946104600F062
:103AF0006DFE0590059B002BB1D100BF00BF07B044
:103B00005DF804FB60010020F8000300E80B0020D2
:103B1000EC0B002000B583B00190019800F00FFD80
:103B20000346002B01D0FFF7D9FE0021019800F0D9
:103B300024FD0346002B02D00198FFF7DDFE012192
:103B4000019800F01AFD0346002B02D00198FFF700
:103B500001FF0198FFF778FF0198FFF70BFF00BF07
:103B600003B05DF804FB000008B5024800F027FD33
:103B700000BF08BD5801002000B585B00346009184
:103B80008DF80730114A02AB1946104600F0F1FDDE
:103B90000390039B002B13D0039B9DF807201A7002
:103BA000039B009A5A60094A02AB1946104600F07E
:103BB000F9FD0346002B01D0FFF7D6FF002300E0FC
:103BC0000423184605B05DF804FB00BF6001002027
:103BD00000B583B00023ADF8003006238DF8023025
:103BE000144808235822144900F090FD0190019BCD
:103BF000002B01D0019B19E06B46104A1946104872
:103C000000F056FA0190019B002B01D0019B0DE0C2
:103C100001210B4800F082FC01230A4A01210848D7
:103C200000F0FAFA084B01221A70019B184603B003
:103C30005DF804FB60010020000C0020153B000033
:103C400058010020FFFF7F00EC0B002000B587B07B
:103C500003900B4601928DF80B30039B002B04D18F
:103C6000134940F22E2000F0C5FC019B002B04D12B
:103C70000F4940F22F2000F0BDFC019B002B01D129
:103C8000072310E0039B1B680593059B019A5A616B
:103C90009DF80B30012B0CBF01230023DBB21A4629
:103CA000059B1A610023184607B05DF804FB00BFAE
:103CB000A000030030B587B0039002910192039BEE
:103CC000002B04D1164940F23E2000F093FC039BE8
:103CD0000593059B93F82030DBB2002B01D0002325
:103CE0001AE0059B019A9A61FFF7C0FC029B1A46F5
:103CF0004FF00003841841EB0305059BC3E902451F
:103D0000059B1B69002B02D0059B029A1A6105993D
:103D10000020FFF731FF0346184607B030BD00BF53
:103D2000A000030000B585B00190019B002B04D1D9
:103D300009494FF4157000F05DFC019B0393039B50
:103D4000002283F8202003990120FFF715FF034686
:103D5000184605B05DF804FBA000030082B0019096
:103D60000091019A009BD31A23F07F43184602B0BA
:103D70007047000008B5034800F014FC03461846DD
:103D800008BD00BF5801002072B600BF034B1B687E
:103D90000133024A136000BF704700BF5C0C002073
:103DA000064B1B68013B054A1360044B1B68002B44
:103DB00001D162B600BF00BF704700BF5C0C00209D
:103DC00000B583B0019000F025F80346012B03D025
:103DD0000449432000F00EFCFFF7D6FF00BF03B0FC
:103DE0005DF804FB0401030000B583B003468DF8C1
:103DF000073000F00FF80346012B03D0044951208F
:103E000000F0F8FBFFF7CCFF00BF03B05DF804FB48
:103E10000401030084B0EFF305830193019BC3F316
:103E200008030393039B002B0DD1EFF3148300933E
:103E3000009B0293029B03F00103002B0CBF0123A4
:103E40000023DBB200E00123184604B070470000F5
:103E500082B003468DF807309DF8073003F01F024B
:103E600005499DF907305B09012000FA02F241F88B
:103E7000232000BF02B0704700E100E082B003469B
:103E80008DF807309DF8073003F01F0206499DF9B1
:103E900007305B09012000FA02F2403341F8232089
:103EA00000BF02B0704700BF00E100E082B00346EF
:103EB00000918DF807309DF90730002B0CDA009B3C
:103EC000DAB20C499DF8073003F00F03043B5201AE
:103ED000D2B20B441A7609E0009BDAB206499DF98A
:103EE00007305201D2B20B4483F8002300BF02B066
:103EF000704700BF00ED00E000E100E000B583B0D6
:103F000003460A468DF8073013468DF806309DF8B3
:103F10000630072B03D908496B2000F06BFB9DF896
:103F200006209DF9073011461846FFF7BFFF00BF76
:103F300003B05DF804FB00BF6001030000B583B06F
:103F400003468DF807309DF907301846FFF780FFCC
:103F500000BF03B05DF804FB00B585B00190019B84
:103F6000002B0AD0074B43F001030393019B9B01F5
:103F70000293039B0298984700E000BF05B05DF8EC
:103F800004FB00BF4002030084B003900291019241
:103F9000039B029A02F5A872019943F8221000BF10
:103FA00004B0704782B001900091019B009A02F525
:103FB000A87253F82230184602B0704782B00190C0
:103FC0000091019B009AC3F8042300BF02B0704720
:103FD00082B001900091019B009AC3F8082300BFB2
:103FE00002B0704782B001900B46ADF80230BDF8C8
:103FF0000230019A13441B68184602B0704784B01F
:1040000001900B46ADF80230BDF80230019A13441E
:1040100000221A60BDF80230019A13441B68039312
:10402000039B00BF04B0704782B00190019BD3F89E
:104030000435184602B0704700B583B00190009176
:10404000009BB3F5805F04D306494FF4BE7000F0C7
:10405000D1FA019B009AC3F8082500BF03B05DF8B0
:1040600004FB00BF8001030082B001900B468DF875
:1040700003309DF80320019B13441A46012313606B
:1040800000BF02B0704782B001900091019B009A7E
:10409000C3F8442300BF02B0704782B00190009182
:1040A000019B009AC3F8482300BF02B0704700008C
:1040B00000B587B0039002910192039B002B03D1BE
:1040C0003749552000F096FA029B002B03D1344962
:1040D000562000F08FFA019B002B03D13049572066
:1040E00000F088FA039B5B7919462E4A019B42F83F
:1040F0002130039B5B792C4ADB0013441B79002B96
:1041000012D008230593294B5B88012B0AD9284A32
:10411000284BD31ADB081B0443F002032649184638
:10412000FCF708FF059B36E0039B1A68029B1B887F
:1041300019461046FFF780FF039B93F90420029B6A
:104140009B7819461046FFF7D9FE039B93F904307C
:104150001846FFF7F3FE039B5B79134ADB00134419
:1041600001221A71039B5B7919460F4A039B42F89F
:104170003130002305930D4B5B88022B0AD90C4A82
:104180000C4BD31ADB081B0443F003030B491846FE
:10419000FCF7D0FE059B184607B05DF804FB00BF96
:1041A000A0010300600C0020640C0020240000200B
:1041B0005CF5020014F50200F4010300180203008C
:1041C00000B583B00190019B002B03D106498720E5
:1041D00000F010FA019B1B6800211846FFF744FF0E
:1041E00000BF03B05DF804FBA001030000B583B07D
:1041F0000190019B002B03D106498D2000F0FAF9B4
:10420000019B1B6804211846FFF72EFF00BF03B077
:104210005DF804FBA001030000B587B00390029194
:1042200001928DF80330039B002B03D12149962086
:1042300000F0E0F94FF48032029B02FA03F3059399
:10424000029B50339BB29B00ADF81230019B23F0D0
:104250007F430193039B1B6805991846FFF7B8FE3F
:10426000039B1B6805991846FFF717FF039B1B6804
:10427000BDF8122011461846FFF7C1FE039B1B68CC
:10428000019A02991846FFF77FFE039B1B68059968
:104290001846FFF7F8FE9DF80330002B05D0039B6E
:1042A0001B6805991846FFF789FE00BF07B05DF847
:1042B00004FB00BFA001030000B585B0039002918C
:1042C00013468DF80730039B002B03D10B49A9201F
:1042D00000F090F9039B1B6802991846FFF7D3FE84
:1042E0009DF80730002B05D0039B1B6802991846E8
:1042F000FFF764FE00BF05B05DF804FBA0010300FA
:1043000000B583B001900091019B002B03D10A49B5
:10431000B32000F06FF9019B1B6800991846FFF766
:10432000BCFE019B1B6800991846FFF751FE00BFB9
:1043300003B05DF804FB00BFA001030000B583B02B
:1043400001900B46ADF80230019B002B03D10F49C1
:10435000BA2000F04FF9019B1B68BDF802201146FE
:104360001846FFF73FFE0346002B09D0019B1B6850
:10437000BDF8022011461846FFF741FE012300E078
:104380000023184603B05DF804FB00BFA001030042
:1043900082B001900091019A009BD31A23F07F43D1
:1043A000184602B07047000000B58BB00390029130
:1043B00001920093039B002B03D15749CD2000F0BD
:1043C00019F94FF48032029B02FA03F30993029B1E
:1043D00050339BB29B00ADF82230019B23F07F430A
:1043E000019309990398FFF78BFF039B1B681846FD
:1043F000FFF71AFE0790039B1B6802991846FFF708
:10440000D1FD0690039B1B68079A02991846FFF797
:10441000BBFD039B1B68BDF8222011461846FFF721
:10442000EEFD07990698FFF7B3FF0346012B0AD16B
:104430001020FFF791FD039B1B68BDF82220114659
:104440001846FFF7DCFD039B1B681846FFF7ECFDE1
:10445000079007990198FFF79BFF0590039B1B6846
:1044600009991846FFF70FFE059B012B15D1039BF9
:104470001868019B01331A460299FFF785FD102049
:10448000FFF76AFD039B1B681846FFF7CDFD024648
:10449000079B934235D00D2339E0039B1B68019A9B
:1044A00002991846FFF770FD039B1B681846FFF73B
:1044B000BBFD0790019B013B07991846FFF768FF7A
:1044C0000590009BC3F1FF1303F57F43059A9A42C1
:1044D00001D90D231BE0059B002B12D1039B18680B
:1044E000019B01331A460299FFF74EFD039B1B689F
:1044F0001846FFF799FD0246079B934201D00D2312
:1045000005E0012209990398FFF7D6FE002318461B
:104510000BB05DF804FB00BFA001030000B583B041
:1045200001900B468DF803309DF803301A460221A6
:104530000198FFF7C1FE00BF03B05DF804FB00B5B2
:1045400083B001904FF482710198FFF7F7FE0346A4
:10455000184603B05DF804FB00B583B001900091EC
:104560004FF48032009B02FA03F319460198FFF7DB
:10457000C7FE00BF03B05DF804FB00B585B0019035
:104580000091009B50339BB29B00ADF80E30BDF8FC
:104590000E3019460198FFF7D1FE0346184605B0C4
:1045A0005DF804FB00B583B00190019B1B681846C1
:1045B000FFF73AFD0346184603B05DF804FB00B56B
:1045C00083B00190019B93F904301846FFF756FC25
:1045D00000BF03B05DF804FB08B5044B1B68044A38
:1045E00012681046984700BF08BD00BF600C00204D
:1045F000640C002000B585B003460091ADF806308C
:10460000BDF80630ADF80830009B039302AB1A46A4
:10461000002144F20200FDF7C9FD00BF05B05DF8BE
:1046200004FB86B001900091019B53E8011F8AB200
:10463000D88902449889824228BF121A1889824276
:1046400002BFBFF32F8F002307E0C2EA010243E855
:1046500001200028E9D14FF001038DF80F300590BB
:1046600002910492029A009B1A609DF80F30DBB20F
:10467000184606B0704784B00190019951E8013F97
:10468000C3EA034341E80132002AF7D103920293BF
:1046900000BF04B0704786B001900091019B53E8C1
:1046A000021F1FFAA1F2D888824202BFBFF32F8FE8
:1046B00000230DE0D88902449889824228BF121A4B
:1046C000C1EA024243E802200028E8D14FF001038A
:1046D0008DF80F30059002910492029A009B1A60A7
:1046E0009DF80F30DBB2184606B0704784B00190D9
:1046F000019951E8023FC3EA234341E80232002A0C
:10470000F7D10392029300BF04B0704784B00390C6
:10471000029111461A460B46ADF806301346ADF825
:104720000430029B002B01D10E231FE0BDF80630A0
:10473000BDF80420B3FBF2F102FB01F29B1A9BB21D
:10474000002B01D0092311E0039B029A1A60039BFE
:1047500000225A60039B00229A60039BBDF806204A
:104760009A81039BBDF80420DA810023184604B027
:10477000704700B585B001900091009B19460198E3
:10478000FFF74FFF0346002B07D0019B1B68009AE1
:10479000128813440393039B00E00023184605B0DE
:1047A0005DF804FB00B583B001900091009B1A886E
:1047B000009B5B889A4204D10198FFF75CFF0123BC
:1047C00000E00023184603B05DF804FB00B585B097
:1047D00001900091009B19460198FFF75CFF03468A
:1047E000002B07D0019B1B68009A52881344039347
:1047F000039B00E00023184605B05DF804FB00B5FC
:1048000083B001900091009B1A88009B5B889A42BC
:1048100004D10198FFF76AFF012300E00023184646
:1048200003B05DF804FB10B487B001900091019BC8
:10483000009A53E8004F104643E8000191F0000F42
:10484000F7D1059404900391059B184607B05DF8D5
:10485000044B704710B487B001900091019B009AFF
:1048600053E8004F44EA020043E8000191F0000FD2
:10487000F6D1059404900391059B184607B05DF8A6
:10488000044B704710B487B001900091019B009ACF
:1048900053E8004F44EA020043E8000191F0000FA2
:1048A000F6D1059404900391049B184607B05DF877
:1048B000044B704710B487B001900091019B009A9F
:1048C00053E8004F04EA020043E8000191F0000FB2
:1048D000F6D1059404900391059B184607B05DF846
:1048E000044B704710B487B001900091019B009A6F
:1048F00053E8004F04EA020043E8000191F0000F82
:10490000F6D1059404900391049B184607B05DF816
:10491000044B704710B487B001900091019B009A3E
:1049200053E8004F04EB020043E8000191F0000F50
:10493000F6D1059404900391049B184607B05DF8E6
:10494000044B704710B487B001900091019B009A0E
:1049500053E8004FA4EB020043E8000191F0000F80
:10496000F6D1059404900391049B184607B05DF8B6
:10497000044B704700B583B0019001210198FFF707
:1049800069FF0346184603B05DF804FB00B583B029
:10499000019001210198FFF775FF0346184603B007
:1049A0005DF804FB00B583B0019000210198FFF78A
:1049B00081FF0346184603B05DF804FB00B583B0E1
:1049C000019000210198FFF78DFF0346184603B0C0
:1049D0005DF804FB00B583B001900B468DF8033001
:1049E000019B002B03D10849E820FFF703FE019B40
:1049F000DA689DF803300199898A01FB03F31344B7
:104A0000184603B05DF804FB4802030000B583B00C
:104A100001900091019B002B03D10849F520FFF77D
:104A2000E9FD009B019AD2689B1A019A928AB3FB16
:104A3000F2F3DBB2184603B05DF804FB4802030052
:104A400000B585B00190019B002B01D10E234CE0F5
:104A5000019B1B68002B03D12649FF20FFF7CAFDED
:104A6000019B5B68002B04D122494FF48070FFF753
:104A7000C1FD019B9B68002B04D11E4940F201102F
:104A8000FFF7B8FD019BDB68002B04D119494FF4F7
:104A90008170FFF7AFFD019B9B8A002B04D1154964
:104AA00040F20310FFF7A6FD019B9A68019B5B682B
:104AB000D31A8DF80F30019B1B68019A52681A6057
:104AC00007E0019B1A681368591C11609DF80F20BC
:104AD0001A709DF80F305A1E8DF80F20002BF0D160
:104AE000019B1B6800221A710023184605B05DF86F
:104AF00004FB00BF4802030000B585B00190019B94
:104B0000002B04D11C494FF49270FFF773FD002372
:104B100003930020FFF754F9019B1B681A68019B5F
:104B20005B689A421FD9019B1B681A68013A1A6098
:104B30001B681B7819460198FFF74CFF0390019BF7
:104B40009A68019B1B681B68D31A8DF80B30019B78
:104B50001B681B799DF80B209A4204D9019B1B68A6
:104B60009DF80B201A710020FFF73EF9039B1846B1
:104B700005B05DF804FB00BF4802030010B584B027
:104B800001900091019B002B04D1114940F2471084
:104B9000FFF730FD009B002B04D10D494FF4A470AA
:104BA000FFF728FD009B03930020FFF709F9019B05
:104BB0001B681C68621C1A6003990198FFF726FFA6
:104BC000034623700020FFF70FF900BF04B010BDAB
:104BD0004802030000B583B00190019B002B03D174
:104BE0000C493120FFF706FD019B9B68002B0CD080
:104BF000019B5B69019A1069019A1168019A926898
:104C00009847019B00229A6000E000BF03B05DF866
:104C100004FB00BFA00203000EB400B584B00190F5
:104C2000019B002B03D118494220FFF7E3FC019BB5
:104C30005B69002B03D114494320FFF7DBFC019B88
:104C40001B68002B03D110494420FFF7D3FC019BC4
:104C50005B68002B03D10C494520FFF7CBFC059B7B
:104C6000002B0AD00023039306AB039303AB1A4631
:104C70000599019800F02EFE00E000BF04B05DF839
:104C800004EB03B0704700BFA002030000B583B07F
:104C900001900B468DF803309DF803300A2B03D1A9
:104CA0000D210198FFF7F2FF019B1A68019B9B6899
:104CB000581C0199886013449DF803201A70019BC9
:104CC0009A68019B5B689A4202D30198FFF782FFC2
:104CD00000BF03B05DF804FB00B587B003900291FC
:104CE0000192009300230593009B03F00103002B26
:104CF00024D00BE0029B01330293059B0133059303
:104D00009DF8133019460398FFF7C0FF029B1B78EC
:104D10008DF813309DF81330002BEBD106E0019B8A
:104D2000013B019320210398FFF7B0FF019A059BF7
:104D30009A422ED9019B002BF1D12AE0029B002B35
:104D40000BD0029808F0C1F8059006E0019B013BEA
:104D5000019320210398FFF799FF019A059B9A423E
:104D60000FD9019B002BF1D10BE0029B0133029381
:104D7000059B013305939DF8133019460398FFF7FF
:104D800085FF029B1B788DF813309DF81330002BA4
:104D9000EBD100BF07B05DF804FB000000B589B09F
:104DA0000390029101920093029B079301230693C3
:104DB00007E0079A019BB2FBF3F30793069B0133CD
:104DC0000693079A019B9A42F3D2009A069B9A4255
:104DD00001D9009B06930B9B03F00103002B22D10A
:104DE0000A9B002B1FD00B9B03F00203002B06D065
:104DF000009B002B03D130238DF8173002E02023D5
:104E00008DF8173008E00A9B013B0A939DF8173094
:104E100019460398FFF73AFF0A9B002B03D0069A26
:104E20000A9B9A42EFD301230793009B012B03D9DE
:104E3000009B013B009309E0029A079BB2FBF3F34E
:104E40000493049A019B9A4200D205E0079B019AC1
:104E500002FB03F30793E8E7029A079BB2FBF3F325
:104E60000493049B079A02FB03F3029AD31A02935A
:104E7000154A049B13441B7819460398FFF706FF55
:104E8000079A019BB2FBF3F30793079B002BE3D137
:104E90000B9B03F00103002B11D00A9B002B0ED0BB
:104EA00006E00A9B013B0A9320210398FFF7EEFEE0
:104EB0000A9B002B03D0069A0A9B9A42F1D300BFAB
:104EC00009B05DF804FB00BF4403030000B589B0DE
:104ED0000590049103920293049B002BB8BF5B42A0
:104EE00006930123079307E0039B069A92FBF3F3D3
:104EF0000693079B01330793039B069A9A42F3DAC2
:104F0000029A079B9A4201D9029B07930A9B002BA6
:104F10000AD0049B002B04DB0B9B03F00403002B43
:104F200002D00A9B013B0A930B9B03F00203002B68
:104F300002D0029B002B16D00B9B03F00103002B29
:104F400011D10A9B002B0ED006E00A9B013B0A936D
:104F500020210598FFF79AFE0A9B002B03D0079AA1
:104F60000A9B9A42F1D3049B002B07DA049B5B4215
:104F700004932D210598FFF789FE08E00B9B03F0B1
:104F80000403002B03D02B210598FFF77FFE0B9B1A
:104F900003F00203002B19D00B9B03F00103002B3D
:104FA00014D1029B002B11D10A9B002B0ED006E0DE
:104FB0000A9B013B0A9330210598FFF767FE0A9B85
:104FC000002B03D0079A0A9B9A42F1D304990B9BBA
:104FD00001930A9B0093029B039A0598FFF7DEFE5C
:104FE00000BF09B05DF804FB00B583B001900B462B
:104FF0008DF8033013468DF8023011E09DF8023031
:10500000002B04D030210198FFF740FE03E020215F
:105010000198FFF73BFE9DF80330013B8DF803300C
:105020009DF80330002BE9D100BF00BF03B05DF84D
:1050300004FB00002DE9F04FD7B033908DED300B1D
:1050400032912F922E9300238DF8573100238DF843
:105050001F3100238DF81E31329B002B04D0329B70
:10506000DBB20133DBB200E007238DF81D31DDE94F
:1050700030014FF000024FF0000307F01DFD034622
:10508000002B18D0DDE930014FF00002B24B07F0E1
:105090002FFD0346002B0ED0DDE930014FF000025A
:1050A000AD4B07F0E3FB02460B46CDE9302301236D
:1050B0008DF8573122E0DDE930014FF00002A74BB7
:1050C00007F0FAFC0346002B18D0DDE930014FF061
:1050D00000024FF0000307F00BFD0346002B0DD03C
:1050E000DDE930014FF000029B4B07F0E1FC024686
:1050F0000B46CDE9302301238DF8573130A934AB6D
:105100000822184607F085FEDDE93423DB0F8DF811
:105110001A31DDE934234FF000004FF00001180D83
:1051200000210346C3F30A034593DDE934014FF040
:10513000FF328B4B00EA020401EA0305CDE9524538
:10514000459A40F2FF739A4272D12F9B002B1DD0DB
:105150002E9B03F00103002B18D12F9BDAB29DF98F
:105160001A112E9B03F00403002B14BF012300230C
:10517000DBB25BB20B435BB2DBB2D31ADBB2033BF5
:10518000DBB2002219463398FFF72EFF9DF81A3143
:10519000002B04D02D213398FFF778FD08E02E9BDB
:1051A00003F00403002B03D02B213398FFF76EFD8F
:1051B000DDE9522313431DD09DF88031002B0CD024
:1051C0004E213398FFF762FD41213398FFF75EFDD2
:1051D0004E213398FFF75AFD78E36E213398FFF79D
:1051E00055FD61213398FFF751FD6E213398FFF78C
:1051F0004DFD6BE39DF88031002B0CD04921339895
:10520000FFF744FD4E213398FFF740FD46213398C8
:10521000FFF73CFD5AE369213398FFF737FD6E2114
:105220003398FFF733FD66213398FFF72FFD4DE3E9
:10523000DDE95223134302D1459B002B0ED0DDE95B
:1052400052014FF000024FF4801340EA020412941E
:105250000B431393DDE91234CDE95234459BA3F29D
:10526000FF334593459BDBB2C3F134038DF8133113
:105270009DF81331402B00F228839DF81341DDE99E
:105280005223C4F12001A4F1200022FA04F803FA09
:1052900001F148EA010823FA00F048EA000823FA7D
:1052A00004F9CDE950899DF81341DDE95023A4F1BB
:1052B0002001C4F1200003FA04F702FA01F10F43C0
:1052C00022FA00F0074302FA04F66FEA060A6FEAD0
:1052D000070BDDE9522302EA0A01149103EA0B03EA
:1052E0001593DDE91434CDE94E3410E0DDE94E23A9
:1052F0004FF000004FF00001500840EAC370590819
:10530000CDE94E019DF81E3101338DF81E31DDE9E6
:105310004E014FF001024FF0000300EA0204069430
:105320000B400793DDE90634234303D1DDE94E2327
:105330001343DBD19DF813219DF81E31D31A8DF84C
:1053400012314FF001024FF00003CDE94C2300234E
:105350008DF81C3124E000BF0000F03F0000F0BFDA
:10536000FFFF0F00DDE94C4522462B464FF00000C1
:105370004FF00001990041EA9271900002460B46FD
:10538000121945EB0303911816915B411793DDE960
:105390001623CDE94C239DF81C3101338DF81C31C7
:1053A0009DF81C219DF81D319A42DBD3DDE94E01A9
:1053B0004FF0FF324FF0000300EA020408940B4064
:1053C0000993DDE94C014FF0FF324FF0000300EA92
:1053D00002040A940B400B93DDE90A452346DDE9FC
:1053E00008673A4603FB02F23346294603FB01F302
:1053F000D11833462246A3FB022319440B46CDE9BC
:105400004223CDE94223DDE942014FF0FF324FF064
:10541000000300EA020418940B401993DDE91834E4
:10542000CDE94034DDE94E234FF000044FF0000594
:105430001C000025DDE94C014FF0FF324FF0000366
:1054400000EA02060C960B400D93DDE90C010346C1
:1054500003FB05F20B4604FB03F313440246A4FBD3
:1054600002452B441D46DDE942234FF000004FF07A
:1054700000011800002123181A9345EB01031B9328
:10548000DDE91A34CDE94234DDE942014FF0FF3263
:105490004FF0000300EA02041C940B401D93DDE969
:1054A0001C34CDE93E34DDE942234FF000004FF0DB
:1054B000000118000021CDE93C01DDE94E014FF06B
:1054C000FF324FF0000300EA02040E940B400F93EA
:1054D000DDE94C234FF000004FF0000118000021DF
:1054E000DDE90E452B4600FB03F2234603FB01F3E7
:1054F00013442246A2FB00010B441946DDE93E237A
:1055000014181E944B411F93DDE91E34CDE942343B
:10551000DDE942014FF0FF324FF0000300EA0204E0
:1055200020940B402193DDE92034CDE93E34DDE9C0
:105530004E234FF000044FF000051C000025DDE96C
:105540004C234FF000004FF000011800002100FB39
:1055500005F204FB01F31344A4FB00010B441946BC
:10556000DDE93C238418109441EB03031193DDE93A
:1055700042234FF000004FF0000118000021DDE948
:10558000104523461B1822932B4641EB030323931C
:10559000DDE92234CDE94234DDE942014FF0FF324A
:1055A0004FF0000300EA020424940B402593DDE948
:1055B0002434CDE93C34DDE942014FF000024FF0E4
:1055C00000030A000023CDE93A23DDE93E234FF032
:1055D00000004FF0000111000020DDE9402342EA05
:1055E000000426940B432793DDE92634CDE94A34A1
:1055F000DDE93A014FF000024FF000030300002202
:10560000DDE93C0140EA020428940B432993DDE9DB
:105610002834CDE938349DF81231C3F14001DDE979
:105620003823A1F12004C1F1200003FA01F503950C
:1056300002FA04F4039D2543039522FA00F0039C2B
:105640000443039402FA01F30293DDE90234CDE945
:1056500038349DF81211DDE94A23C1F12004A1F18B
:10566000200022FA01F5049503FA04F4049D254371
:10567000049523FA00F0049C04430494CB40059362
:10568000DDE90434CDE94A34DDE94A01DDE93823B6
:1056900040EA02042A940B432B93DDE92A34CDE936
:1056A0004834DDE948014FF00A024FF0000307F0EB
:1056B0003BFA002B08BF052A17D3DDE948014FF05C
:1056C0000A024FF0000307F02FFA02460B46CDE91D
:1056D0004823DDE94823511C2C9143F100032D930D
:1056E000DDE92C34CDE948340BE0DDE948014FF029
:1056F0000A024FF0000307F017FA02460B46CDE905
:1057000048239DF81D31013B8DF81D319DF857311F
:10571000002B0BD0DDE95023002B08BF012A05D157
:105720004FF000024FF00003CDE950239DF81D31EA
:105730000A2B1DD99DF81D310A3B8DF81B3110E055
:10574000DDE948014FF00A024FF0000307F0ECF9E1
:1057500002460B46CDE948239DF81B31013B8DF8ED
:105760001B319DF81B31002BEAD10A238DF81D3126
:10577000DDE95023CDE94A2310E0DDE94A014FF08D
:105780000A024FF0000307F0CFF902460B46CDE9BD
:105790004A239DF81F3101338DF81F31DDE94A237B
:1057A0001343EAD1DDE95023134306D1DDE9482351
:1057B000134302D101238DF81F319DF81F31002BB7
:1057C00002D101238DF81F312F9B002B2AD02E9B55
:1057D00003F00103002B25D19DF81F312F9AD21A17
:1057E0009DF81D31D31A9DF81A212E9901F004015C
:1057F000002914BF01210021C9B20A439B1A013BB1
:105800003793379B002B0DDD379BD9B22E9B03F0CE
:105810000203002B14BF01230023DBB21A46339886
:10582000FFF7E2FB9DF81A31002B04D02D213398AD
:10583000FFF72CFA08E02E9B03F00403002B03D0A3
:105840002B213398FFF722FA50990023019300236C
:10585000009300230A223398FFF738FB2E21339858
:10586000FFF714FA48999DF81D3100220192002299
:1058700000920A223398FFF729FB2F9B002B25D09B
:105880002E9B03F00103002B20D09DF81F312F9A8F
:10589000D21A9DF81D31D31A9DF81A212E9901F0C4
:1058A0000401002914BF01210021C9B20A439B1A37
:1058B000013B3693369B002B08DD369BDBB2002282
:1058C00019463398FFF790FB00E000BF57B0BDE8E2
:1058D000F08F00BF00B593B0059004910392059B33
:1058E000002B04D1C84940F25220FEF783FE059BED
:1058F0005B69002B04D1C4494FF41570FEF77AFEA2
:10590000059B1B68002B04D1BF4940F25520FEF7D0
:1059100071FE059B5B68002B04D1BB4940F2562009
:10592000FEF768FE049B002B00F01D82049B1B7891
:105930008DF84730049B013304939DF84730002BCA
:1059400000F008829DF84730252B40F0F7810023B6
:105950000E9301231093049B1B788DF847309DF81C
:105960004730302B0DD0302B1BDC2B2B11D02D2BA7
:1059700017D10E9B43F001030E93049B0133049354
:1059800012E00E9B43F002030E93049B0133049339
:105990000AE00E9B43F004030E93049B013304932F
:1059A00002E00023109300BF109B002BD3D10023F3
:1059B0000D939DF847302A2B0CD1039B1B68191DB2
:1059C000039A11601B680D9A13440D93049B0133D5
:1059D00004931AE0049B1B788DF847309DF84730FC
:1059E0002F2B12D99DF84730392B0ED8049B013349
:1059F00004930D9A13469B0013445B001A469DF8CE
:105A000047301344303B0D93D3E700230F93049B9F
:105A10001B788DF847309DF847302E2B1DD1049B05
:105A200001330493049B1B788DF847309DF8473071
:105A30002F2B12D99DF84730392B0ED8049B0133F8
:105A400004930F9A13469B0013445B001A469DF87B
:105A500047301344303B0F93E4E7049B1B788DF8E9
:105A600047309DF847306C2B03D09DF84730682BAA
:105A700007D1049B01330493049B1B788DF84730B6
:105A8000EFE79DF84730253B532B00F2528101A2EE
:105A900052F823F0C95C0000335D0000335D000064
:105AA000335D0000335D0000335D0000335D0000B6
:105AB000335D0000335D0000335D0000335D0000A6
:105AC000335D0000335D0000335D0000335D000096
:105AD000335D0000335D0000335D0000335D000086
